{
  "_format": "hh-sol-artifact-1",
  "contractName": "Box",
  "sourceName": "contracts/box.sol",
  "abi": [
    {
      "inputs": [
        {
          "internalType": "address",
          "name": "diamondsAddr",
          "type": "address"
        },
        {
          "internalType": "address",
          "name": "workerAddr",
          "type": "address"
        },
        {
          "internalType": "address",
          "name": "hoeAddr",
          "type": "address"
        }
      ],
      "stateMutability": "nonpayable",
      "type": "constructor"
    },
    {
      "anonymous": false,
      "inputs": [
        {
          "indexed": true,
          "internalType": "address",
          "name": "owner",
          "type": "address"
        },
        {
          "indexed": true,
          "internalType": "address",
          "name": "approved",
          "type": "address"
        },
        {
          "indexed": true,
          "internalType": "uint256",
          "name": "tokenId",
          "type": "uint256"
        }
      ],
      "name": "Approval",
      "type": "event"
    },
    {
      "anonymous": false,
      "inputs": [
        {
          "indexed": true,
          "internalType": "address",
          "name": "owner",
          "type": "address"
        },
        {
          "indexed": true,
          "internalType": "address",
          "name": "operator",
          "type": "address"
        },
        {
          "indexed": false,
          "internalType": "bool",
          "name": "approved",
          "type": "bool"
        }
      ],
      "name": "ApprovalForAll",
      "type": "event"
    },
    {
      "anonymous": false,
      "inputs": [
        {
          "indexed": false,
          "internalType": "uint256",
          "name": "leixing",
          "type": "uint256"
        },
        {
          "indexed": false,
          "internalType": "uint256",
          "name": "create",
          "type": "uint256"
        }
      ],
      "name": "OpenBox",
      "type": "event"
    },
    {
      "anonymous": false,
      "inputs": [
        {
          "indexed": true,
          "internalType": "bytes32",
          "name": "role",
          "type": "bytes32"
        },
        {
          "indexed": true,
          "internalType": "bytes32",
          "name": "previousAdminRole",
          "type": "bytes32"
        },
        {
          "indexed": true,
          "internalType": "bytes32",
          "name": "newAdminRole",
          "type": "bytes32"
        }
      ],
      "name": "RoleAdminChanged",
      "type": "event"
    },
    {
      "anonymous": false,
      "inputs": [
        {
          "indexed": true,
          "internalType": "bytes32",
          "name": "role",
          "type": "bytes32"
        },
        {
          "indexed": true,
          "internalType": "address",
          "name": "account",
          "type": "address"
        },
        {
          "indexed": true,
          "internalType": "address",
          "name": "sender",
          "type": "address"
        }
      ],
      "name": "RoleGranted",
      "type": "event"
    },
    {
      "anonymous": false,
      "inputs": [
        {
          "indexed": true,
          "internalType": "bytes32",
          "name": "role",
          "type": "bytes32"
        },
        {
          "indexed": true,
          "internalType": "address",
          "name": "account",
          "type": "address"
        },
        {
          "indexed": true,
          "internalType": "address",
          "name": "sender",
          "type": "address"
        }
      ],
      "name": "RoleRevoked",
      "type": "event"
    },
    {
      "anonymous": false,
      "inputs": [
        {
          "indexed": true,
          "internalType": "address",
          "name": "from",
          "type": "address"
        },
        {
          "indexed": true,
          "internalType": "address",
          "name": "to",
          "type": "address"
        },
        {
          "indexed": true,
          "internalType": "uint256",
          "name": "tokenId",
          "type": "uint256"
        }
      ],
      "name": "Transfer",
      "type": "event"
    },
    {
      "inputs": [],
      "name": "DEFAULT_ADMIN_ROLE",
      "outputs": [
        {
          "internalType": "bytes32",
          "name": "",
          "type": "bytes32"
        }
      ],
      "stateMutability": "view",
      "type": "function"
    },
    {
      "inputs": [],
      "name": "MINTER_ROLE",
      "outputs": [
        {
          "internalType": "bytes32",
          "name": "",
          "type": "bytes32"
        }
      ],
      "stateMutability": "view",
      "type": "function"
    },
    {
      "inputs": [
        {
          "internalType": "address",
          "name": "to",
          "type": "address"
        },
        {
          "internalType": "uint256",
          "name": "tokenId",
          "type": "uint256"
        }
      ],
      "name": "approve",
      "outputs": [],
      "stateMutability": "nonpayable",
      "type": "function"
    },
    {
      "inputs": [
        {
          "internalType": "address",
          "name": "owner",
          "type": "address"
        }
      ],
      "name": "balanceOf",
      "outputs": [
        {
          "internalType": "uint256",
          "name": "",
          "type": "uint256"
        }
      ],
      "stateMutability": "view",
      "type": "function"
    },
    {
      "inputs": [],
      "name": "box",
      "outputs": [],
      "stateMutability": "nonpayable",
      "type": "function"
    },
    {
      "inputs": [
        {
          "internalType": "uint256",
          "name": "tokenId",
          "type": "uint256"
        }
      ],
      "name": "burn",
      "outputs": [],
      "stateMutability": "nonpayable",
      "type": "function"
    },
    {
      "inputs": [],
      "name": "buyBox",
      "outputs": [],
      "stateMutability": "nonpayable",
      "type": "function"
    },
    {
      "inputs": [
        {
          "internalType": "uint256",
          "name": "tokenId",
          "type": "uint256"
        }
      ],
      "name": "getApproved",
      "outputs": [
        {
          "internalType": "address",
          "name": "",
          "type": "address"
        }
      ],
      "stateMutability": "view",
      "type": "function"
    },
    {
      "inputs": [
        {
          "internalType": "bytes32",
          "name": "role",
          "type": "bytes32"
        }
      ],
      "name": "getRoleAdmin",
      "outputs": [
        {
          "internalType": "bytes32",
          "name": "",
          "type": "bytes32"
        }
      ],
      "stateMutability": "view",
      "type": "function"
    },
    {
      "inputs": [
        {
          "internalType": "bytes32",
          "name": "role",
          "type": "bytes32"
        },
        {
          "internalType": "address",
          "name": "account",
          "type": "address"
        }
      ],
      "name": "grantRole",
      "outputs": [],
      "stateMutability": "nonpayable",
      "type": "function"
    },
    {
      "inputs": [
        {
          "internalType": "bytes32",
          "name": "role",
          "type": "bytes32"
        },
        {
          "internalType": "address",
          "name": "account",
          "type": "address"
        }
      ],
      "name": "hasRole",
      "outputs": [
        {
          "internalType": "bool",
          "name": "",
          "type": "bool"
        }
      ],
      "stateMutability": "view",
      "type": "function"
    },
    {
      "inputs": [
        {
          "internalType": "address",
          "name": "owner",
          "type": "address"
        },
        {
          "internalType": "address",
          "name": "operator",
          "type": "address"
        }
      ],
      "name": "isApprovedForAll",
      "outputs": [
        {
          "internalType": "bool",
          "name": "",
          "type": "bool"
        }
      ],
      "stateMutability": "view",
      "type": "function"
    },
    {
      "inputs": [
        {
          "internalType": "address",
          "name": "player",
          "type": "address"
        },
        {
          "internalType": "string",
          "name": "tokenURI",
          "type": "string"
        }
      ],
      "name": "mint",
      "outputs": [
        {
          "internalType": "uint256",
          "name": "",
          "type": "uint256"
        }
      ],
      "stateMutability": "nonpayable",
      "type": "function"
    },
    {
      "inputs": [],
      "name": "name",
      "outputs": [
        {
          "internalType": "string",
          "name": "",
          "type": "string"
        }
      ],
      "stateMutability": "view",
      "type": "function"
    },
    {
      "inputs": [
        {
          "internalType": "uint256",
          "name": "tokenId",
          "type": "uint256"
        }
      ],
      "name": "ownerOf",
      "outputs": [
        {
          "internalType": "address",
          "name": "",
          "type": "address"
        }
      ],
      "stateMutability": "view",
      "type": "function"
    },
    {
      "inputs": [],
      "name": "price",
      "outputs": [
        {
          "internalType": "uint256",
          "name": "",
          "type": "uint256"
        }
      ],
      "stateMutability": "view",
      "type": "function"
    },
    {
      "inputs": [
        {
          "internalType": "uint256",
          "name": "_length",
          "type": "uint256"
        },
        {
          "internalType": "uint256",
          "name": "_nonce",
          "type": "uint256"
        }
      ],
      "name": "rand",
      "outputs": [
        {
          "internalType": "uint256",
          "name": "",
          "type": "uint256"
        }
      ],
      "stateMutability": "view",
      "type": "function"
    },
    {
      "inputs": [
        {
          "internalType": "bytes32",
          "name": "role",
          "type": "bytes32"
        },
        {
          "internalType": "address",
          "name": "account",
          "type": "address"
        }
      ],
      "name": "renounceRole",
      "outputs": [],
      "stateMutability": "nonpayable",
      "type": "function"
    },
    {
      "inputs": [
        {
          "internalType": "bytes32",
          "name": "role",
          "type": "bytes32"
        },
        {
          "internalType": "address",
          "name": "account",
          "type": "address"
        }
      ],
      "name": "revokeRole",
      "outputs": [],
      "stateMutability": "nonpayable",
      "type": "function"
    },
    {
      "inputs": [
        {
          "internalType": "address",
          "name": "from",
          "type": "address"
        },
        {
          "internalType": "address",
          "name": "to",
          "type": "address"
        },
        {
          "internalType": "uint256",
          "name": "tokenId",
          "type": "uint256"
        }
      ],
      "name": "safeTransferFrom",
      "outputs": [],
      "stateMutability": "nonpayable",
      "type": "function"
    },
    {
      "inputs": [
        {
          "internalType": "address",
          "name": "from",
          "type": "address"
        },
        {
          "internalType": "address",
          "name": "to",
          "type": "address"
        },
        {
          "internalType": "uint256",
          "name": "tokenId",
          "type": "uint256"
        },
        {
          "internalType": "bytes",
          "name": "_data",
          "type": "bytes"
        }
      ],
      "name": "safeTransferFrom",
      "outputs": [],
      "stateMutability": "nonpayable",
      "type": "function"
    },
    {
      "inputs": [
        {
          "internalType": "address",
          "name": "operator",
          "type": "address"
        },
        {
          "internalType": "bool",
          "name": "approved",
          "type": "bool"
        }
      ],
      "name": "setApprovalForAll",
      "outputs": [],
      "stateMutability": "nonpayable",
      "type": "function"
    },
    {
      "inputs": [
        {
          "internalType": "uint256",
          "name": "_price",
          "type": "uint256"
        }
      ],
      "name": "setPrice",
      "outputs": [],
      "stateMutability": "nonpayable",
      "type": "function"
    },
    {
      "inputs": [
        {
          "internalType": "address",
          "name": "addr",
          "type": "address"
        }
      ],
      "name": "setRole",
      "outputs": [],
      "stateMutability": "nonpayable",
      "type": "function"
    },
    {
      "inputs": [
        {
          "internalType": "bytes4",
          "name": "interfaceId",
          "type": "bytes4"
        }
      ],
      "name": "supportsInterface",
      "outputs": [
        {
          "internalType": "bool",
          "name": "",
          "type": "bool"
        }
      ],
      "stateMutability": "view",
      "type": "function"
    },
    {
      "inputs": [],
      "name": "symbol",
      "outputs": [
        {
          "internalType": "string",
          "name": "",
          "type": "string"
        }
      ],
      "stateMutability": "view",
      "type": "function"
    },
    {
      "inputs": [
        {
          "internalType": "uint256",
          "name": "tokenId",
          "type": "uint256"
        }
      ],
      "name": "tokenURI",
      "outputs": [
        {
          "internalType": "string",
          "name": "",
          "type": "string"
        }
      ],
      "stateMutability": "view",
      "type": "function"
    },
    {
      "inputs": [
        {
          "internalType": "address",
          "name": "from",
          "type": "address"
        },
        {
          "internalType": "address",
          "name": "to",
          "type": "address"
        },
        {
          "internalType": "uint256",
          "name": "tokenId",
          "type": "uint256"
        }
      ],
      "name": "transferFrom",
      "outputs": [],
      "stateMutability": "nonpayable",
      "type": "function"
    }
  ],
  "bytecode": "0x6080604052670de0b6b3a7640000600c553480156200001d57600080fd5b50604051620027343803806200273483398101604081905262000040916200028b565b60405180604001604052806003815260200162084def60eb1b815250604051806040016040528060038152602001620849eb60eb1b815250816001908051906020019062000090929190620001c8565b508051620000a6906002906020840190620001c8565b50620000b89150600090503362000127565b620000e47f9f2df0fed2c77648de5860a4cc508cd0818c85b8b8a1ab4ceeef8d981c8956a63362000127565b600980546001600160a01b039485166001600160a01b031991821617909155600a805493851693821693909317909255600b805491909316911617905562000312565b6000828152602081815260408083206001600160a01b038516845290915290205460ff16620001c4576000828152602081815260408083206001600160a01b03851684529091529020805460ff19166001179055620001833390565b6001600160a01b0316816001600160a01b0316837f2f8788117e7eff1d82e926ec794901d17c78024a50270940304540a733656f0d60405160405180910390a45b5050565b828054620001d690620002d5565b90600052602060002090601f016020900481019282620001fa576000855562000245565b82601f106200021557805160ff191683800117855562000245565b8280016001018555821562000245579182015b828111156200024557825182559160200191906001019062000228565b506200025392915062000257565b5090565b5b8082111562000253576000815560010162000258565b80516001600160a01b03811681146200028657600080fd5b919050565b600080600060608486031215620002a157600080fd5b620002ac846200026e565b9250620002bc602085016200026e565b9150620002cc604085016200026e565b90509250925092565b600181811c90821680620002ea57607f821691505b602082108114156200030c57634e487b7160e01b600052602260045260246000fd5b50919050565b61241280620003226000396000f3fe608060405234801561001057600080fd5b50600436106101c45760003560e01c8063754215a1116100f9578063a22cb46511610097578063d0def52111610071578063d0def521146103aa578063d5391393146103bd578063d547741f146103e4578063e985e9c5146103f757600080fd5b8063a22cb46514610371578063b88d4fde14610384578063c87b56dd1461039757600080fd5b806395032b62116100d357806395032b621461034557806395d89b4114610358578063a035b1fe14610360578063a217fddf1461036957600080fd5b8063754215a11461031757806391b7f5ed1461031f57806391d148541461033257600080fd5b806336568abe11610166578063479507bb11610140578063479507bb146102d65780635d0efc4d146102de5780636352211e146102f157806370a082311461030457600080fd5b806336568abe1461029d57806342842e0e146102b057806342966c68146102c357600080fd5b8063095ea7b3116101a2578063095ea7b31461023157806323b872dd14610246578063248a9ca3146102595780632f2ff15d1461028a57600080fd5b806301ffc9a7146101c957806306fdde03146101f1578063081812fc14610206575b600080fd5b6101dc6101d7366004611da1565b610433565b60405190151581526020015b60405180910390f35b6101f9610444565b6040516101e89190611e16565b610219610214366004611e29565b6104d6565b6040516001600160a01b0390911681526020016101e8565b61024461023f366004611e5e565b610563565b005b610244610254366004611e88565b610679565b61027c610267366004611e29565b60009081526020819052604090206001015490565b6040519081526020016101e8565b610244610298366004611ec4565b6106aa565b6102446102ab366004611ec4565b6106d0565b6102446102be366004611e88565b61074e565b6102446102d1366004611e29565b610769565b610244610978565b6102446102ec366004611ef0565b610ab5565b6102196102ff366004611e29565b610aeb565b61027c610312366004611ef0565b610b62565b610244610be9565b61024461032d366004611e29565b610cf0565b6101dc610340366004611ec4565b610d02565b61027c610353366004611f0b565b610d2b565b6101f9610d7d565b61027c600c5481565b61027c600081565b61024461037f366004611f2d565b610d8c565b610244610392366004611ff5565b610d97565b6101f96103a5366004611e29565b610dcf565b61027c6103b8366004612071565b610f3e565b61027c7f9f2df0fed2c77648de5860a4cc508cd0818c85b8b8a1ab4ceeef8d981c8956a681565b6102446103f2366004611ec4565b610f75565b6101dc6104053660046120d3565b6001600160a01b03918216600090815260066020908152604080832093909416825291909152205460ff1690565b600061043e82610f9b565b92915050565b606060018054610453906120fd565b80601f016020809104026020016040519081016040528092919081815260200182805461047f906120fd565b80156104cc5780601f106104a1576101008083540402835291602001916104cc565b820191906000526020600020905b8154815290600101906020018083116104af57829003601f168201915b5050505050905090565b60006104e182610fdb565b6105475760405162461bcd60e51b815260206004820152602c60248201527f4552433732313a20617070726f76656420717565727920666f72206e6f6e657860448201526b34b9ba32b73a103a37b5b2b760a11b60648201526084015b60405180910390fd5b506000908152600560205260409020546001600160a01b031690565b600061056e82610aeb565b9050806001600160a01b0316836001600160a01b031614156105dc5760405162461bcd60e51b815260206004820152602160248201527f4552433732313a20617070726f76616c20746f2063757272656e74206f776e656044820152603960f91b606482015260840161053e565b336001600160a01b03821614806105f857506105f88133610405565b61066a5760405162461bcd60e51b815260206004820152603860248201527f4552433732313a20617070726f76652063616c6c6572206973206e6f74206f7760448201527f6e6572206e6f7220617070726f76656420666f7220616c6c0000000000000000606482015260840161053e565b6106748383610ff8565b505050565b6106833382611066565b61069f5760405162461bcd60e51b815260040161053e90612138565b61067483838361114c565b6000828152602081905260409020600101546106c681336112e8565b610674838361134c565b6001600160a01b03811633146107405760405162461bcd60e51b815260206004820152602f60248201527f416363657373436f6e74726f6c3a2063616e206f6e6c792072656e6f756e636560448201526e103937b632b9903337b91039b2b63360891b606482015260840161053e565b61074a82826113d0565b5050565b61067483838360405180602001604052806000815250610d97565b61077281610fdb565b6107be5760405162461bcd60e51b815260206004820152601e60248201527f5f746f6b656e496420666f72206e6f6e6578697374656e7420746f6b656e0000604482015260640161053e565b6107c781611435565b60006107d560146000610d2b565b9050600a81106108b057600a5460408051631fe600bb60e21b81523360048201526024810191909152600060448201819052916001600160a01b031690637f9802ec90606401602060405180830381600087803b15801561083557600080fd5b505af1158015610849573d6000803e3d6000fd5b505050506040513d601f19601f8201168201806040525081019061086d9190612189565b6040805160018152602081018390529192507feefcddeab7e8e30c6cd44664b4c03e411958efc153ff0248f6d0b5fb43cf2f1c91015b60405180910390a1505050565b600b54604080516309d1d16760e31b81523360048201526024810191909152600060448201819052916001600160a01b031690634e8e8b3890606401602060405180830381600087803b15801561090657600080fd5b505af115801561091a573d6000803e3d6000fd5b505050506040513d601f19601f8201168201806040525081019061093e9190612189565b6040805160028152602081018390529192507feefcddeab7e8e30c6cd44664b4c03e411958efc153ff0248f6d0b5fb43cf2f1c91016108a3565b6009546040516370a0823160e01b81523360048201526000916001600160a01b0316906370a082319060240160206040518083038186803b1580156109bc57600080fd5b505afa1580156109d0573d6000803e3d6000fd5b505050506040513d601f19601f820116820180604052508101906109f49190612189565b9050600c54811015610a3e5760405162461bcd60e51b81526020600482015260136024820152720c8d2c2dadedcc8e6409cdee840cadcdeeaced606b1b604482015260640161053e565b600954600c54604051632770a7eb60e21b815233600482015260248101919091526001600160a01b0390911690639dc29fac906044015b600060405180830381600087803b158015610a8f57600080fd5b505af1158015610aa3573d6000803e3d6000fd5b5050505060006107d560146000610d2b565b6000610ac181336112e8565b61074a7f9f2df0fed2c77648de5860a4cc508cd0818c85b8b8a1ab4ceeef8d981c8956a68361134c565b6000818152600360205260408120546001600160a01b03168061043e5760405162461bcd60e51b815260206004820152602960248201527f4552433732313a206f776e657220717565727920666f72206e6f6e657869737460448201526832b73a103a37b5b2b760b91b606482015260840161053e565b60006001600160a01b038216610bcd5760405162461bcd60e51b815260206004820152602a60248201527f4552433732313a2062616c616e636520717565727920666f7220746865207a65604482015269726f206164647265737360b01b606482015260840161053e565b506001600160a01b031660009081526004602052604090205490565b6009546040516370a0823160e01b81523360048201526000916001600160a01b0316906370a082319060240160206040518083038186803b158015610c2d57600080fd5b505afa158015610c41573d6000803e3d6000fd5b505050506040513d601f19601f82011682018060405250810190610c659190612189565b9050600c54811015610caf5760405162461bcd60e51b81526020600482015260136024820152720c8d2c2dadedcc8e6409cdee840cadcdeeaced606b1b604482015260640161053e565b600954600c546040516306dad3fb60e01b815233600482015230602482015260448101919091526001600160a01b03909116906306dad3fb90606401610a75565b6000610cfc81336112e8565b50600c55565b6000918252602082815260408084206001600160a01b0393909316845291905290205460ff1690565b6040805144602080830191909152428284015260608083018590528351808403909101815260809092019092528051910120600090610d6a84826121b8565b610d759060016121e2565b949350505050565b606060028054610453906120fd565b61074a338383611478565b610da13383611066565b610dbd5760405162461bcd60e51b815260040161053e90612138565b610dc984848484611547565b50505050565b6060610dda82610fdb565b610e405760405162461bcd60e51b815260206004820152603160248201527f45524337323155524953746f726167653a2055524920717565727920666f72206044820152703737b732bc34b9ba32b73a103a37b5b2b760791b606482015260840161053e565b60008281526007602052604081208054610e59906120fd565b80601f0160208091040260200160405190810160405280929190818152602001828054610e85906120fd565b8015610ed25780601f10610ea757610100808354040283529160200191610ed2565b820191906000526020600020905b815481529060010190602001808311610eb557829003601f168201915b505050505090506000610ef060408051602081019091526000815290565b9050805160001415610f03575092915050565b815115610f35578082604051602001610f1d9291906121fa565b60405160208183030381529060405292505050919050565b610d758461157a565b60007f9f2df0fed2c77648de5860a4cc508cd0818c85b8b8a1ab4ceeef8d981c8956a6610f6b81336112e8565b610d758484611652565b600082815260208190526040902060010154610f9181336112e8565b61067483836113d0565b60006001600160e01b031982166380ac58cd60e01b1480610fcc57506001600160e01b03198216635b5e139f60e01b145b8061043e575061043e82611683565b6000908152600360205260409020546001600160a01b0316151590565b600081815260056020526040902080546001600160a01b0319166001600160a01b038416908117909155819061102d82610aeb565b6001600160a01b03167f8c5be1e5ebec7d5bd14f71427d1e84f3dd0314c0f7b2291e5b200ac8c7c3b92560405160405180910390a45050565b600061107182610fdb565b6110d25760405162461bcd60e51b815260206004820152602c60248201527f4552433732313a206f70657261746f7220717565727920666f72206e6f6e657860448201526b34b9ba32b73a103a37b5b2b760a11b606482015260840161053e565b60006110dd83610aeb565b9050806001600160a01b0316846001600160a01b031614806111185750836001600160a01b031661110d846104d6565b6001600160a01b0316145b80610d7557506001600160a01b0380821660009081526006602090815260408083209388168352929052205460ff16610d75565b826001600160a01b031661115f82610aeb565b6001600160a01b0316146111c35760405162461bcd60e51b815260206004820152602560248201527f4552433732313a207472616e736665722066726f6d20696e636f72726563742060448201526437bbb732b960d91b606482015260840161053e565b6001600160a01b0382166112255760405162461bcd60e51b8152602060048201526024808201527f4552433732313a207472616e7366657220746f20746865207a65726f206164646044820152637265737360e01b606482015260840161053e565b611230600082610ff8565b6001600160a01b0383166000908152600460205260408120805460019290611259908490612229565b90915550506001600160a01b03821660009081526004602052604081208054600192906112879084906121e2565b909155505060008181526003602052604080822080546001600160a01b0319166001600160a01b0386811691821790925591518493918716917fddf252ad1be2c89b69c2b068fc378daa952ba7f163c4a11628f55a4df523b3ef91a4505050565b6112f28282610d02565b61074a5761130a816001600160a01b031660146116b8565b6113158360206116b8565b604051602001611326929190612240565b60408051601f198184030181529082905262461bcd60e51b825261053e91600401611e16565b6113568282610d02565b61074a576000828152602081815260408083206001600160a01b03851684529091529020805460ff1916600117905561138c3390565b6001600160a01b0316816001600160a01b0316837f2f8788117e7eff1d82e926ec794901d17c78024a50270940304540a733656f0d60405160405180910390a45050565b6113da8282610d02565b1561074a576000828152602081815260408083206001600160a01b0385168085529252808320805460ff1916905551339285917ff6391f5c32d9c69d2a47ea670b442974b53935d1edc7fd64eb21e047a839171b9190a45050565b61143e81611854565b60008181526007602052604090208054611457906120fd565b15905061147557600081815260076020526040812061147591611cb8565b50565b816001600160a01b0316836001600160a01b031614156114da5760405162461bcd60e51b815260206004820152601960248201527f4552433732313a20617070726f766520746f2063616c6c657200000000000000604482015260640161053e565b6001600160a01b03838116600081815260066020908152604080832094871680845294825291829020805460ff191686151590811790915591519182527f17307eab39ab6107e8899845ad3d59bd9653f200f220920489ca2b5937696c31910160405180910390a3505050565b61155284848461114c565b61155e848484846118ef565b610dc95760405162461bcd60e51b815260040161053e906122b5565b606061158582610fdb565b6115e95760405162461bcd60e51b815260206004820152602f60248201527f4552433732314d657461646174613a2055524920717565727920666f72206e6f60448201526e3732bc34b9ba32b73a103a37b5b2b760891b606482015260840161053e565b600061160060408051602081019091526000815290565b90506000815111611620576040518060200160405280600081525061164b565b8061162a846119fc565b60405160200161163b9291906121fa565b6040516020818303038152906040525b9392505050565b6000611662600880546001019055565b600061166d60085490565b90506116798482611afa565b61164b8184611c2d565b60006001600160e01b03198216637965db0b60e01b148061043e57506301ffc9a760e01b6001600160e01b031983161461043e565b606060006116c7836002612307565b6116d29060026121e2565b67ffffffffffffffff8111156116ea576116ea611f69565b6040519080825280601f01601f191660200182016040528015611714576020820181803683370190505b509050600360fc1b8160008151811061172f5761172f612326565b60200101906001600160f81b031916908160001a905350600f60fb1b8160018151811061175e5761175e612326565b60200101906001600160f81b031916908160001a9053506000611782846002612307565b61178d9060016121e2565b90505b6001811115611805576f181899199a1a9b1b9c1cb0b131b232b360811b85600f16601081106117c1576117c1612326565b1a60f81b8282815181106117d7576117d7612326565b60200101906001600160f81b031916908160001a90535060049490941c936117fe8161233c565b9050611790565b50831561164b5760405162461bcd60e51b815260206004820181905260248201527f537472696e67733a20686578206c656e67746820696e73756666696369656e74604482015260640161053e565b600061185f82610aeb565b905061186c600083610ff8565b6001600160a01b0381166000908152600460205260408120805460019290611895908490612229565b909155505060008281526003602052604080822080546001600160a01b0319169055518391906001600160a01b038416907fddf252ad1be2c89b69c2b068fc378daa952ba7f163c4a11628f55a4df523b3ef908390a45050565b60006001600160a01b0384163b156119f157604051630a85bd0160e11b81526001600160a01b0385169063150b7a0290611933903390899088908890600401612353565b602060405180830381600087803b15801561194d57600080fd5b505af192505050801561197d575060408051601f3d908101601f1916820190925261197a91810190612390565b60015b6119d7573d8080156119ab576040519150601f19603f3d011682016040523d82523d6000602084013e6119b0565b606091505b5080516119cf5760405162461bcd60e51b815260040161053e906122b5565b805181602001fd5b6001600160e01b031916630a85bd0160e11b149050610d75565b506001949350505050565b606081611a205750506040805180820190915260018152600360fc1b602082015290565b8160005b8115611a4a5780611a34816123ad565b9150611a439050600a836123c8565b9150611a24565b60008167ffffffffffffffff811115611a6557611a65611f69565b6040519080825280601f01601f191660200182016040528015611a8f576020820181803683370190505b5090505b8415610d7557611aa4600183612229565b9150611ab1600a866121b8565b611abc9060306121e2565b60f81b818381518110611ad157611ad1612326565b60200101906001600160f81b031916908160001a905350611af3600a866123c8565b9450611a93565b6001600160a01b038216611b505760405162461bcd60e51b815260206004820181905260248201527f4552433732313a206d696e7420746f20746865207a65726f2061646472657373604482015260640161053e565b611b5981610fdb565b15611ba65760405162461bcd60e51b815260206004820152601c60248201527f4552433732313a20746f6b656e20616c7265616479206d696e74656400000000604482015260640161053e565b6001600160a01b0382166000908152600460205260408120805460019290611bcf9084906121e2565b909155505060008181526003602052604080822080546001600160a01b0319166001600160a01b03861690811790915590518392907fddf252ad1be2c89b69c2b068fc378daa952ba7f163c4a11628f55a4df523b3ef908290a45050565b611c3682610fdb565b611c995760405162461bcd60e51b815260206004820152602e60248201527f45524337323155524953746f726167653a2055524920736574206f66206e6f6e60448201526d32bc34b9ba32b73a103a37b5b2b760911b606482015260840161053e565b6000828152600760209081526040909120825161067492840190611cf2565b508054611cc4906120fd565b6000825580601f10611cd4575050565b601f0160209004906000526020600020908101906114759190611d76565b828054611cfe906120fd565b90600052602060002090601f016020900481019282611d205760008555611d66565b82601f10611d3957805160ff1916838001178555611d66565b82800160010185558215611d66579182015b82811115611d66578251825591602001919060010190611d4b565b50611d72929150611d76565b5090565b5b80821115611d725760008155600101611d77565b6001600160e01b03198116811461147557600080fd5b600060208284031215611db357600080fd5b813561164b81611d8b565b60005b83811015611dd9578181015183820152602001611dc1565b83811115610dc95750506000910152565b60008151808452611e02816020860160208601611dbe565b601f01601f19169290920160200192915050565b60208152600061164b6020830184611dea565b600060208284031215611e3b57600080fd5b5035919050565b80356001600160a01b0381168114611e5957600080fd5b919050565b60008060408385031215611e7157600080fd5b611e7a83611e42565b946020939093013593505050565b600080600060608486031215611e9d57600080fd5b611ea684611e42565b9250611eb460208501611e42565b9150604084013590509250925092565b60008060408385031215611ed757600080fd5b82359150611ee760208401611e42565b90509250929050565b600060208284031215611f0257600080fd5b61164b82611e42565b60008060408385031215611f1e57600080fd5b50508035926020909101359150565b60008060408385031215611f4057600080fd5b611f4983611e42565b915060208301358015158114611f5e57600080fd5b809150509250929050565b634e487b7160e01b600052604160045260246000fd5b600067ffffffffffffffff80841115611f9a57611f9a611f69565b604051601f8501601f19908116603f01168101908282118183101715611fc257611fc2611f69565b81604052809350858152868686011115611fdb57600080fd5b858560208301376000602087830101525050509392505050565b6000806000806080858703121561200b57600080fd5b61201485611e42565b935061202260208601611e42565b925060408501359150606085013567ffffffffffffffff81111561204557600080fd5b8501601f8101871361205657600080fd5b61206587823560208401611f7f565b91505092959194509250565b6000806040838503121561208457600080fd5b61208d83611e42565b9150602083013567ffffffffffffffff8111156120a957600080fd5b8301601f810185136120ba57600080fd5b6120c985823560208401611f7f565b9150509250929050565b600080604083850312156120e657600080fd5b6120ef83611e42565b9150611ee760208401611e42565b600181811c9082168061211157607f821691505b6020821081141561213257634e487b7160e01b600052602260045260246000fd5b50919050565b60208082526031908201527f4552433732313a207472616e736665722063616c6c6572206973206e6f74206f6040820152701ddb995c881b9bdc88185c1c1c9bdd9959607a1b606082015260800190565b60006020828403121561219b57600080fd5b5051919050565b634e487b7160e01b600052601260045260246000fd5b6000826121c7576121c76121a2565b500690565b634e487b7160e01b600052601160045260246000fd5b600082198211156121f5576121f56121cc565b500190565b6000835161220c818460208801611dbe565b835190830190612220818360208801611dbe565b01949350505050565b60008282101561223b5761223b6121cc565b500390565b7f416363657373436f6e74726f6c3a206163636f756e7420000000000000000000815260008351612278816017850160208801611dbe565b7001034b99036b4b9b9b4b733903937b6329607d1b60179184019182015283516122a9816028840160208801611dbe565b01602801949350505050565b60208082526032908201527f4552433732313a207472616e7366657220746f206e6f6e20455243373231526560408201527131b2b4bb32b91034b6b83632b6b2b73a32b960711b606082015260800190565b6000816000190483118215151615612321576123216121cc565b500290565b634e487b7160e01b600052603260045260246000fd5b60008161234b5761234b6121cc565b506000190190565b6001600160a01b038581168252841660208201526040810183905260806060820181905260009061238690830184611dea565b9695505050505050565b6000602082840312156123a257600080fd5b815161164b81611d8b565b60006000198214156123c1576123c16121cc565b5060010190565b6000826123d7576123d76121a2565b50049056fea26469706673582212207a54522582e0eaddfe78db954d046bb50ee834cdc80ddb17f189813c756b61dc64736f6c63430008090033",
  "linkReferences": {},
  "deployedLinkReferences": {}
}