{
  "_format": "hh-sol-artifact-1",
  "contractName": "Hoe",
  "sourceName": "contracts/hoe.sol",
  "abi": [
    {
      "inputs": [],
      "stateMutability": "nonpayable",
      "type": "constructor"
    },
    {
      "anonymous": false,
      "inputs": [
        {
          "indexed": true,
          "internalType": "address",
          "name": "owner",
          "type": "address"
        },
        {
          "indexed": true,
          "internalType": "address",
          "name": "approved",
          "type": "address"
        },
        {
          "indexed": true,
          "internalType": "uint256",
          "name": "tokenId",
          "type": "uint256"
        }
      ],
      "name": "Approval",
      "type": "event"
    },
    {
      "anonymous": false,
      "inputs": [
        {
          "indexed": true,
          "internalType": "address",
          "name": "owner",
          "type": "address"
        },
        {
          "indexed": true,
          "internalType": "address",
          "name": "operator",
          "type": "address"
        },
        {
          "indexed": false,
          "internalType": "bool",
          "name": "approved",
          "type": "bool"
        }
      ],
      "name": "ApprovalForAll",
      "type": "event"
    },
    {
      "anonymous": false,
      "inputs": [
        {
          "indexed": true,
          "internalType": "bytes32",
          "name": "role",
          "type": "bytes32"
        },
        {
          "indexed": true,
          "internalType": "bytes32",
          "name": "previousAdminRole",
          "type": "bytes32"
        },
        {
          "indexed": true,
          "internalType": "bytes32",
          "name": "newAdminRole",
          "type": "bytes32"
        }
      ],
      "name": "RoleAdminChanged",
      "type": "event"
    },
    {
      "anonymous": false,
      "inputs": [
        {
          "indexed": true,
          "internalType": "bytes32",
          "name": "role",
          "type": "bytes32"
        },
        {
          "indexed": true,
          "internalType": "address",
          "name": "account",
          "type": "address"
        },
        {
          "indexed": true,
          "internalType": "address",
          "name": "sender",
          "type": "address"
        }
      ],
      "name": "RoleGranted",
      "type": "event"
    },
    {
      "anonymous": false,
      "inputs": [
        {
          "indexed": true,
          "internalType": "bytes32",
          "name": "role",
          "type": "bytes32"
        },
        {
          "indexed": true,
          "internalType": "address",
          "name": "account",
          "type": "address"
        },
        {
          "indexed": true,
          "internalType": "address",
          "name": "sender",
          "type": "address"
        }
      ],
      "name": "RoleRevoked",
      "type": "event"
    },
    {
      "anonymous": false,
      "inputs": [
        {
          "indexed": true,
          "internalType": "address",
          "name": "from",
          "type": "address"
        },
        {
          "indexed": true,
          "internalType": "address",
          "name": "to",
          "type": "address"
        },
        {
          "indexed": true,
          "internalType": "uint256",
          "name": "tokenId",
          "type": "uint256"
        }
      ],
      "name": "Transfer",
      "type": "event"
    },
    {
      "inputs": [],
      "name": "DEFAULT_ADMIN_ROLE",
      "outputs": [
        {
          "internalType": "bytes32",
          "name": "",
          "type": "bytes32"
        }
      ],
      "stateMutability": "view",
      "type": "function"
    },
    {
      "inputs": [],
      "name": "MINTER_ROLE",
      "outputs": [
        {
          "internalType": "bytes32",
          "name": "",
          "type": "bytes32"
        }
      ],
      "stateMutability": "view",
      "type": "function"
    },
    {
      "inputs": [
        {
          "internalType": "address",
          "name": "to",
          "type": "address"
        },
        {
          "internalType": "uint256",
          "name": "tokenId",
          "type": "uint256"
        }
      ],
      "name": "approve",
      "outputs": [],
      "stateMutability": "nonpayable",
      "type": "function"
    },
    {
      "inputs": [
        {
          "internalType": "address",
          "name": "owner",
          "type": "address"
        }
      ],
      "name": "balanceOf",
      "outputs": [
        {
          "internalType": "uint256",
          "name": "",
          "type": "uint256"
        }
      ],
      "stateMutability": "view",
      "type": "function"
    },
    {
      "inputs": [
        {
          "internalType": "address",
          "name": "player",
          "type": "address"
        },
        {
          "internalType": "uint256",
          "name": "tokenId",
          "type": "uint256"
        }
      ],
      "name": "dig",
      "outputs": [],
      "stateMutability": "nonpayable",
      "type": "function"
    },
    {
      "inputs": [
        {
          "internalType": "uint256",
          "name": "_tokenId",
          "type": "uint256"
        }
      ],
      "name": "digAlow",
      "outputs": [
        {
          "internalType": "bool",
          "name": "",
          "type": "bool"
        }
      ],
      "stateMutability": "view",
      "type": "function"
    },
    {
      "inputs": [
        {
          "internalType": "uint256",
          "name": "tokenId",
          "type": "uint256"
        }
      ],
      "name": "getApproved",
      "outputs": [
        {
          "internalType": "address",
          "name": "",
          "type": "address"
        }
      ],
      "stateMutability": "view",
      "type": "function"
    },
    {
      "inputs": [
        {
          "internalType": "address",
          "name": "_owner",
          "type": "address"
        }
      ],
      "name": "getByOwner",
      "outputs": [
        {
          "internalType": "uint256[]",
          "name": "",
          "type": "uint256[]"
        }
      ],
      "stateMutability": "view",
      "type": "function"
    },
    {
      "inputs": [
        {
          "internalType": "bytes32",
          "name": "role",
          "type": "bytes32"
        }
      ],
      "name": "getRoleAdmin",
      "outputs": [
        {
          "internalType": "bytes32",
          "name": "",
          "type": "bytes32"
        }
      ],
      "stateMutability": "view",
      "type": "function"
    },
    {
      "inputs": [
        {
          "internalType": "bytes32",
          "name": "role",
          "type": "bytes32"
        },
        {
          "internalType": "address",
          "name": "account",
          "type": "address"
        }
      ],
      "name": "grantRole",
      "outputs": [],
      "stateMutability": "nonpayable",
      "type": "function"
    },
    {
      "inputs": [
        {
          "internalType": "bytes32",
          "name": "role",
          "type": "bytes32"
        },
        {
          "internalType": "address",
          "name": "account",
          "type": "address"
        }
      ],
      "name": "hasRole",
      "outputs": [
        {
          "internalType": "bool",
          "name": "",
          "type": "bool"
        }
      ],
      "stateMutability": "view",
      "type": "function"
    },
    {
      "inputs": [
        {
          "internalType": "address",
          "name": "owner",
          "type": "address"
        },
        {
          "internalType": "address",
          "name": "operator",
          "type": "address"
        }
      ],
      "name": "isApprovedForAll",
      "outputs": [
        {
          "internalType": "bool",
          "name": "",
          "type": "bool"
        }
      ],
      "stateMutability": "view",
      "type": "function"
    },
    {
      "inputs": [
        {
          "internalType": "address",
          "name": "player",
          "type": "address"
        },
        {
          "internalType": "string",
          "name": "tokenURI",
          "type": "string"
        }
      ],
      "name": "mintHoe",
      "outputs": [
        {
          "internalType": "uint256",
          "name": "",
          "type": "uint256"
        }
      ],
      "stateMutability": "nonpayable",
      "type": "function"
    },
    {
      "inputs": [],
      "name": "name",
      "outputs": [
        {
          "internalType": "string",
          "name": "",
          "type": "string"
        }
      ],
      "stateMutability": "view",
      "type": "function"
    },
    {
      "inputs": [
        {
          "internalType": "uint256",
          "name": "tokenId",
          "type": "uint256"
        }
      ],
      "name": "ownerOf",
      "outputs": [
        {
          "internalType": "address",
          "name": "",
          "type": "address"
        }
      ],
      "stateMutability": "view",
      "type": "function"
    },
    {
      "inputs": [
        {
          "internalType": "uint256",
          "name": "",
          "type": "uint256"
        }
      ],
      "name": "props",
      "outputs": [
        {
          "internalType": "uint16",
          "name": "power",
          "type": "uint16"
        }
      ],
      "stateMutability": "view",
      "type": "function"
    },
    {
      "inputs": [
        {
          "internalType": "uint256",
          "name": "_length",
          "type": "uint256"
        },
        {
          "internalType": "uint256",
          "name": "_nonce",
          "type": "uint256"
        }
      ],
      "name": "rand",
      "outputs": [
        {
          "internalType": "uint256",
          "name": "",
          "type": "uint256"
        }
      ],
      "stateMutability": "view",
      "type": "function"
    },
    {
      "inputs": [
        {
          "internalType": "bytes32",
          "name": "role",
          "type": "bytes32"
        },
        {
          "internalType": "address",
          "name": "account",
          "type": "address"
        }
      ],
      "name": "renounceRole",
      "outputs": [],
      "stateMutability": "nonpayable",
      "type": "function"
    },
    {
      "inputs": [
        {
          "internalType": "bytes32",
          "name": "role",
          "type": "bytes32"
        },
        {
          "internalType": "address",
          "name": "account",
          "type": "address"
        }
      ],
      "name": "revokeRole",
      "outputs": [],
      "stateMutability": "nonpayable",
      "type": "function"
    },
    {
      "inputs": [
        {
          "internalType": "address",
          "name": "from",
          "type": "address"
        },
        {
          "internalType": "address",
          "name": "to",
          "type": "address"
        },
        {
          "internalType": "uint256",
          "name": "tokenId",
          "type": "uint256"
        }
      ],
      "name": "safeTransferFrom",
      "outputs": [],
      "stateMutability": "nonpayable",
      "type": "function"
    },
    {
      "inputs": [
        {
          "internalType": "address",
          "name": "from",
          "type": "address"
        },
        {
          "internalType": "address",
          "name": "to",
          "type": "address"
        },
        {
          "internalType": "uint256",
          "name": "tokenId",
          "type": "uint256"
        },
        {
          "internalType": "bytes",
          "name": "_data",
          "type": "bytes"
        }
      ],
      "name": "safeTransferFrom",
      "outputs": [],
      "stateMutability": "nonpayable",
      "type": "function"
    },
    {
      "inputs": [
        {
          "internalType": "address",
          "name": "operator",
          "type": "address"
        },
        {
          "internalType": "bool",
          "name": "approved",
          "type": "bool"
        }
      ],
      "name": "setApprovalForAll",
      "outputs": [],
      "stateMutability": "nonpayable",
      "type": "function"
    },
    {
      "inputs": [
        {
          "internalType": "address",
          "name": "owner",
          "type": "address"
        },
        {
          "internalType": "address",
          "name": "addr",
          "type": "address"
        },
        {
          "internalType": "bool",
          "name": "b",
          "type": "bool"
        }
      ],
      "name": "setMoveNft",
      "outputs": [],
      "stateMutability": "nonpayable",
      "type": "function"
    },
    {
      "inputs": [
        {
          "internalType": "address",
          "name": "addr",
          "type": "address"
        }
      ],
      "name": "setRole",
      "outputs": [],
      "stateMutability": "nonpayable",
      "type": "function"
    },
    {
      "inputs": [
        {
          "internalType": "uint256",
          "name": "_tokenId",
          "type": "uint256"
        },
        {
          "internalType": "string",
          "name": "tokenURI",
          "type": "string"
        }
      ],
      "name": "setTokenUri",
      "outputs": [],
      "stateMutability": "nonpayable",
      "type": "function"
    },
    {
      "inputs": [
        {
          "internalType": "bytes4",
          "name": "interfaceId",
          "type": "bytes4"
        }
      ],
      "name": "supportsInterface",
      "outputs": [
        {
          "internalType": "bool",
          "name": "",
          "type": "bool"
        }
      ],
      "stateMutability": "view",
      "type": "function"
    },
    {
      "inputs": [],
      "name": "symbol",
      "outputs": [
        {
          "internalType": "string",
          "name": "",
          "type": "string"
        }
      ],
      "stateMutability": "view",
      "type": "function"
    },
    {
      "inputs": [],
      "name": "tokenIds",
      "outputs": [
        {
          "internalType": "uint256",
          "name": "",
          "type": "uint256"
        }
      ],
      "stateMutability": "view",
      "type": "function"
    },
    {
      "inputs": [
        {
          "internalType": "uint256",
          "name": "tokenId",
          "type": "uint256"
        }
      ],
      "name": "tokenURI",
      "outputs": [
        {
          "internalType": "string",
          "name": "",
          "type": "string"
        }
      ],
      "stateMutability": "view",
      "type": "function"
    },
    {
      "inputs": [
        {
          "internalType": "address",
          "name": "from",
          "type": "address"
        },
        {
          "internalType": "address",
          "name": "to",
          "type": "address"
        },
        {
          "internalType": "uint256",
          "name": "tokenId",
          "type": "uint256"
        }
      ],
      "name": "transferFrom",
      "outputs": [],
      "stateMutability": "nonpayable",
      "type": "function"
    }
  ],
  "bytecode": "0x60806040523480156200001157600080fd5b5060405180604001604052806003815260200162486f6560e81b81525060405180604001604052806003815260200162484f4560e81b8152508160019080519060200190620000629291906200015d565b508051620000789060029060208401906200015d565b506200008a91506000905033620000bc565b620000b67f9f2df0fed2c77648de5860a4cc508cd0818c85b8b8a1ab4ceeef8d981c8956a633620000bc565b62000240565b6000828152602081815260408083206001600160a01b038516845290915290205460ff1662000159576000828152602081815260408083206001600160a01b03851684529091529020805460ff19166001179055620001183390565b6001600160a01b0316816001600160a01b0316837f2f8788117e7eff1d82e926ec794901d17c78024a50270940304540a733656f0d60405160405180910390a45b5050565b8280546200016b9062000203565b90600052602060002090601f0160209004810192826200018f5760008555620001da565b82601f10620001aa57805160ff1916838001178555620001da565b82800160010185558215620001da579182015b82811115620001da578251825591602001919060010190620001bd565b50620001e8929150620001ec565b5090565b5b80821115620001e85760008155600101620001ed565b600181811c908216806200021857607f821691505b602082108114156200023a57634e487b7160e01b600052602260045260246000fd5b50919050565b61231e80620002506000396000f3fe608060405234801561001057600080fd5b50600436106101da5760003560e01c806370a0823111610104578063b88d4fde116100a2578063d547741f11610071578063d547741f1461040a578063e985e9c51461041d578063fb85d8dc14610459578063fda54c161461046c57600080fd5b8063b88d4fde146103bc578063c87b56dd146103cf578063cbcbf10d146103e2578063d5391393146103f557600080fd5b806395032b62116100de57806395032b621461038657806395d89b4114610399578063a217fddf146103a1578063a22cb465146103a957600080fd5b806370a0823114610358578063714cff561461036b57806391d148541461037357600080fd5b806336568abe1161017c5780634e8e8b381161014b5780634e8e8b381461030c57806357f7789e1461031f5780635d0efc4d146103325780636352211e1461034557600080fd5b806336568abe146102b3578063379c5131146102c6578063412fc746146102e657806342842e0e146102f957600080fd5b8063095ea7b3116101b8578063095ea7b31461024757806323b872dd1461025c578063248a9ca31461026f5780632f2ff15d146102a057600080fd5b806301ffc9a7146101df57806306fdde0314610207578063081812fc1461021c575b600080fd5b6101f26101ed366004611be4565b6104a3565b60405190151581526020015b60405180910390f35b61020f6104b4565b6040516101fe9190611c59565b61022f61022a366004611c6c565b610546565b6040516001600160a01b0390911681526020016101fe565b61025a610255366004611ca1565b6105d3565b005b61025a61026a366004611ccb565b6106e9565b61029261027d366004611c6c565b60009081526020819052604090206001015490565b6040519081526020016101fe565b61025a6102ae366004611d07565b61071a565b61025a6102c1366004611d07565b610740565b6102d96102d4366004611d33565b6107be565b6040516101fe9190611d4e565b61025a6102f4366004611ca1565b610886565b61025a610307366004611ccb565b610962565b61029261031a366004611e3e565b61097d565b61025a61032d366004611e8c565b610a3a565b61025a610340366004611d33565b610a5d565b61022f610353366004611c6c565b610a81565b610292610366366004611d33565b610af8565b610292610b7f565b6101f2610381366004611d07565b610b8f565b610292610394366004611ebd565b610bb8565b61020f610c0a565b610292600081565b61025a6103b7366004611eef565b610c19565b61025a6103ca366004611f19565b610c24565b61020f6103dd366004611c6c565b610c5c565b6101f26103f0366004611c6c565b610dcb565b6102926000805160206122c983398151915281565b61025a610418366004611d07565b610eab565b6101f261042b366004611f95565b6001600160a01b03918216600090815260066020908152604080832093909416825291909152205460ff1690565b61025a610467366004611fbf565b610ed1565b61049061047a366004611c6c565b60096020526000908152604090205461ffff1681565b60405161ffff90911681526020016101fe565b60006104ae82610ef5565b92915050565b6060600180546104c390612002565b80601f01602080910402602001604051908101604052809291908181526020018280546104ef90612002565b801561053c5780601f106105115761010080835404028352916020019161053c565b820191906000526020600020905b81548152906001019060200180831161051f57829003601f168201915b5050505050905090565b600061055182610f35565b6105b75760405162461bcd60e51b815260206004820152602c60248201527f4552433732313a20617070726f76656420717565727920666f72206e6f6e657860448201526b34b9ba32b73a103a37b5b2b760a11b60648201526084015b60405180910390fd5b506000908152600560205260409020546001600160a01b031690565b60006105de82610a81565b9050806001600160a01b0316836001600160a01b0316141561064c5760405162461bcd60e51b815260206004820152602160248201527f4552433732313a20617070726f76616c20746f2063757272656e74206f776e656044820152603960f91b60648201526084016105ae565b336001600160a01b03821614806106685750610668813361042b565b6106da5760405162461bcd60e51b815260206004820152603860248201527f4552433732313a20617070726f76652063616c6c6572206973206e6f74206f7760448201527f6e6572206e6f7220617070726f76656420666f7220616c6c000000000000000060648201526084016105ae565b6106e48383610f52565b505050565b6106f33382610fc0565b61070f5760405162461bcd60e51b81526004016105ae9061203d565b6106e48383836110a6565b6000828152602081905260409020600101546107368133611242565b6106e483836112a6565b6001600160a01b03811633146107b05760405162461bcd60e51b815260206004820152602f60248201527f416363657373436f6e74726f6c3a2063616e206f6e6c792072656e6f756e636560448201526e103937b632b9903337b91039b2b63360891b60648201526084016105ae565b6107ba828261132a565b5050565b606060006107cb83610af8565b67ffffffffffffffff8111156107e3576107e3611d92565b60405190808252806020026020018201604052801561080c578160200160208202803683370190505b509050600060015b600854811161087d57846001600160a01b031661083082610a81565b6001600160a01b0316141561086b57808383815181106108525761085261208e565b602090810291909101015281610867816120ba565b9250505b80610875816120ba565b915050610814565b50909392505050565b816001600160a01b031661089982610a81565b6001600160a01b0316146108ef5760405162461bcd60e51b815260206004820152601c60248201527f706c6179657220616e6420746f6b656e206e6f74206d6174636865640000000060448201526064016105ae565b6108f881610dcb565b61093b5760405162461bcd60e51b81526020600482015260146024820152730c8d2ce40c6deeadce840dcdee840cadcdeeaced60631b60448201526064016105ae565b60009081526009602090815260408220600190810180549182018155835291204291015550565b6106e483838360405180602001604052806000815250610c24565b60006000805160206122c98339815191526109988133611242565b6109a6600880546001019055565b60006109b160085490565b6040805180820190915260008152606060208201529091506109d560646000610bb8565b61ffff908116825260008381526009602090815260409091208351815461ffff19169316929092178255808301518051849392610a19926001850192910190611af8565b50905050610a27868361138f565b610a3182866114c2565b50949350505050565b6000805160206122c9833981519152610a538133611242565b6106e483836114c2565b6000610a698133611242565b6107ba6000805160206122c9833981519152836112a6565b6000818152600360205260408120546001600160a01b0316806104ae5760405162461bcd60e51b815260206004820152602960248201527f4552433732313a206f776e657220717565727920666f72206e6f6e657869737460448201526832b73a103a37b5b2b760b91b60648201526084016105ae565b60006001600160a01b038216610b635760405162461bcd60e51b815260206004820152602a60248201527f4552433732313a2062616c616e636520717565727920666f7220746865207a65604482015269726f206164647265737360b01b60648201526084016105ae565b506001600160a01b031660009081526004602052604090205490565b6000610b8a60085490565b905090565b6000918252602082815260408084206001600160a01b0393909316845291905290205460ff1690565b6040805144602080830191909152428284015260608083018590528351808403909101815260809092019092528051910120600090610bf784826120eb565b610c029060016120ff565b949350505050565b6060600280546104c390612002565b6107ba33838361154d565b610c2e3383610fc0565b610c4a5760405162461bcd60e51b81526004016105ae9061203d565b610c568484848461161c565b50505050565b6060610c6782610f35565b610ccd5760405162461bcd60e51b815260206004820152603160248201527f45524337323155524953746f726167653a2055524920717565727920666f72206044820152703737b732bc34b9ba32b73a103a37b5b2b760791b60648201526084016105ae565b60008281526007602052604081208054610ce690612002565b80601f0160208091040260200160405190810160405280929190818152602001828054610d1290612002565b8015610d5f5780601f10610d3457610100808354040283529160200191610d5f565b820191906000526020600020905b815481529060010190602001808311610d4257829003601f168201915b505050505090506000610d7d60408051602081019091526000815290565b9050805160001415610d90575092915050565b815115610dc2578082604051602001610daa929190612117565b60405160208183030381529060405292505050919050565b610c028461164f565b600080610ddb6201518042612146565b9050426000805b600086815260096020526040902060010154811015610e8c576000868152600960205260409020600101805485919083908110610e2157610e2161208e565b9060005260206000200154118015610e6757506000868152600960205260409020600101805484919083908110610e5a57610e5a61208e565b9060005260206000200154105b15610e7a5781610e76816120ba565b9250505b80610e84816120ba565b915050610de2565b5060018110610ea057506000949350505050565b506001949350505050565b600082815260208190526040902060010154610ec78133611242565b6106e4838361132a565b6000805160206122c9833981519152610eea8133611242565b610c5684848461154d565b60006001600160e01b031982166380ac58cd60e01b1480610f2657506001600160e01b03198216635b5e139f60e01b145b806104ae57506104ae82611727565b6000908152600360205260409020546001600160a01b0316151590565b600081815260056020526040902080546001600160a01b0319166001600160a01b0384169081179091558190610f8782610a81565b6001600160a01b03167f8c5be1e5ebec7d5bd14f71427d1e84f3dd0314c0f7b2291e5b200ac8c7c3b92560405160405180910390a45050565b6000610fcb82610f35565b61102c5760405162461bcd60e51b815260206004820152602c60248201527f4552433732313a206f70657261746f7220717565727920666f72206e6f6e657860448201526b34b9ba32b73a103a37b5b2b760a11b60648201526084016105ae565b600061103783610a81565b9050806001600160a01b0316846001600160a01b031614806110725750836001600160a01b031661106784610546565b6001600160a01b0316145b80610c0257506001600160a01b0380821660009081526006602090815260408083209388168352929052205460ff16610c02565b826001600160a01b03166110b982610a81565b6001600160a01b03161461111d5760405162461bcd60e51b815260206004820152602560248201527f4552433732313a207472616e736665722066726f6d20696e636f72726563742060448201526437bbb732b960d91b60648201526084016105ae565b6001600160a01b03821661117f5760405162461bcd60e51b8152602060048201526024808201527f4552433732313a207472616e7366657220746f20746865207a65726f206164646044820152637265737360e01b60648201526084016105ae565b61118a600082610f52565b6001600160a01b03831660009081526004602052604081208054600192906111b3908490612146565b90915550506001600160a01b03821660009081526004602052604081208054600192906111e19084906120ff565b909155505060008181526003602052604080822080546001600160a01b0319166001600160a01b0386811691821790925591518493918716917fddf252ad1be2c89b69c2b068fc378daa952ba7f163c4a11628f55a4df523b3ef91a4505050565b61124c8282610b8f565b6107ba57611264816001600160a01b0316601461175c565b61126f83602061175c565b60405160200161128092919061215d565b60408051601f198184030181529082905262461bcd60e51b82526105ae91600401611c59565b6112b08282610b8f565b6107ba576000828152602081815260408083206001600160a01b03851684529091529020805460ff191660011790556112e63390565b6001600160a01b0316816001600160a01b0316837f2f8788117e7eff1d82e926ec794901d17c78024a50270940304540a733656f0d60405160405180910390a45050565b6113348282610b8f565b156107ba576000828152602081815260408083206001600160a01b0385168085529252808320805460ff1916905551339285917ff6391f5c32d9c69d2a47ea670b442974b53935d1edc7fd64eb21e047a839171b9190a45050565b6001600160a01b0382166113e55760405162461bcd60e51b815260206004820181905260248201527f4552433732313a206d696e7420746f20746865207a65726f206164647265737360448201526064016105ae565b6113ee81610f35565b1561143b5760405162461bcd60e51b815260206004820152601c60248201527f4552433732313a20746f6b656e20616c7265616479206d696e7465640000000060448201526064016105ae565b6001600160a01b03821660009081526004602052604081208054600192906114649084906120ff565b909155505060008181526003602052604080822080546001600160a01b0319166001600160a01b03861690811790915590518392907fddf252ad1be2c89b69c2b068fc378daa952ba7f163c4a11628f55a4df523b3ef908290a45050565b6114cb82610f35565b61152e5760405162461bcd60e51b815260206004820152602e60248201527f45524337323155524953746f726167653a2055524920736574206f66206e6f6e60448201526d32bc34b9ba32b73a103a37b5b2b760911b60648201526084016105ae565b600082815260076020908152604090912082516106e492840190611b43565b816001600160a01b0316836001600160a01b031614156115af5760405162461bcd60e51b815260206004820152601960248201527f4552433732313a20617070726f766520746f2063616c6c65720000000000000060448201526064016105ae565b6001600160a01b03838116600081815260066020908152604080832094871680845294825291829020805460ff191686151590811790915591519182527f17307eab39ab6107e8899845ad3d59bd9653f200f220920489ca2b5937696c31910160405180910390a3505050565b6116278484846110a6565b611633848484846118f8565b610c565760405162461bcd60e51b81526004016105ae906121d2565b606061165a82610f35565b6116be5760405162461bcd60e51b815260206004820152602f60248201527f4552433732314d657461646174613a2055524920717565727920666f72206e6f60448201526e3732bc34b9ba32b73a103a37b5b2b760891b60648201526084016105ae565b60006116d560408051602081019091526000815290565b905060008151116116f55760405180602001604052806000815250611720565b806116ff846119fa565b604051602001611710929190612117565b6040516020818303038152906040525b9392505050565b60006001600160e01b03198216637965db0b60e01b14806104ae57506301ffc9a760e01b6001600160e01b03198316146104ae565b6060600061176b836002612224565b6117769060026120ff565b67ffffffffffffffff81111561178e5761178e611d92565b6040519080825280601f01601f1916602001820160405280156117b8576020820181803683370190505b509050600360fc1b816000815181106117d3576117d361208e565b60200101906001600160f81b031916908160001a905350600f60fb1b816001815181106118025761180261208e565b60200101906001600160f81b031916908160001a9053506000611826846002612224565b6118319060016120ff565b90505b60018111156118a9576f181899199a1a9b1b9c1cb0b131b232b360811b85600f16601081106118655761186561208e565b1a60f81b82828151811061187b5761187b61208e565b60200101906001600160f81b031916908160001a90535060049490941c936118a281612243565b9050611834565b5083156117205760405162461bcd60e51b815260206004820181905260248201527f537472696e67733a20686578206c656e67746820696e73756666696369656e7460448201526064016105ae565b60006001600160a01b0384163b15610ea057604051630a85bd0160e11b81526001600160a01b0385169063150b7a029061193c90339089908890889060040161225a565b602060405180830381600087803b15801561195657600080fd5b505af1925050508015611986575060408051601f3d908101601f1916820190925261198391810190612297565b60015b6119e0573d8080156119b4576040519150601f19603f3d011682016040523d82523d6000602084013e6119b9565b606091505b5080516119d85760405162461bcd60e51b81526004016105ae906121d2565b805181602001fd5b6001600160e01b031916630a85bd0160e11b149050610c02565b606081611a1e5750506040805180820190915260018152600360fc1b602082015290565b8160005b8115611a485780611a32816120ba565b9150611a419050600a836122b4565b9150611a22565b60008167ffffffffffffffff811115611a6357611a63611d92565b6040519080825280601f01601f191660200182016040528015611a8d576020820181803683370190505b5090505b8415610c0257611aa2600183612146565b9150611aaf600a866120eb565b611aba9060306120ff565b60f81b818381518110611acf57611acf61208e565b60200101906001600160f81b031916908160001a905350611af1600a866122b4565b9450611a91565b828054828255906000526020600020908101928215611b33579160200282015b82811115611b33578251825591602001919060010190611b18565b50611b3f929150611bb6565b5090565b828054611b4f90612002565b90600052602060002090601f016020900481019282611b715760008555611b33565b82601f10611b8a57805160ff1916838001178555611b33565b82800160010185558215611b335791820182811115611b33578251825591602001919060010190611b18565b5b80821115611b3f5760008155600101611bb7565b6001600160e01b031981168114611be157600080fd5b50565b600060208284031215611bf657600080fd5b813561172081611bcb565b60005b83811015611c1c578181015183820152602001611c04565b83811115610c565750506000910152565b60008151808452611c45816020860160208601611c01565b601f01601f19169290920160200192915050565b6020815260006117206020830184611c2d565b600060208284031215611c7e57600080fd5b5035919050565b80356001600160a01b0381168114611c9c57600080fd5b919050565b60008060408385031215611cb457600080fd5b611cbd83611c85565b946020939093013593505050565b600080600060608486031215611ce057600080fd5b611ce984611c85565b9250611cf760208501611c85565b9150604084013590509250925092565b60008060408385031215611d1a57600080fd5b82359150611d2a60208401611c85565b90509250929050565b600060208284031215611d4557600080fd5b61172082611c85565b6020808252825182820181905260009190848201906040850190845b81811015611d8657835183529284019291840191600101611d6a565b50909695505050505050565b634e487b7160e01b600052604160045260246000fd5b600067ffffffffffffffff80841115611dc357611dc3611d92565b604051601f8501601f19908116603f01168101908282118183101715611deb57611deb611d92565b81604052809350858152868686011115611e0457600080fd5b858560208301376000602087830101525050509392505050565b600082601f830112611e2f57600080fd5b61172083833560208501611da8565b60008060408385031215611e5157600080fd5b611e5a83611c85565b9150602083013567ffffffffffffffff811115611e7657600080fd5b611e8285828601611e1e565b9150509250929050565b60008060408385031215611e9f57600080fd5b82359150602083013567ffffffffffffffff811115611e7657600080fd5b60008060408385031215611ed057600080fd5b50508035926020909101359150565b80358015158114611c9c57600080fd5b60008060408385031215611f0257600080fd5b611f0b83611c85565b9150611d2a60208401611edf565b60008060008060808587031215611f2f57600080fd5b611f3885611c85565b9350611f4660208601611c85565b925060408501359150606085013567ffffffffffffffff811115611f6957600080fd5b8501601f81018713611f7a57600080fd5b611f8987823560208401611da8565b91505092959194509250565b60008060408385031215611fa857600080fd5b611fb183611c85565b9150611d2a60208401611c85565b600080600060608486031215611fd457600080fd5b611fdd84611c85565b9250611feb60208501611c85565b9150611ff960408501611edf565b90509250925092565b600181811c9082168061201657607f821691505b6020821081141561203757634e487b7160e01b600052602260045260246000fd5b50919050565b60208082526031908201527f4552433732313a207472616e736665722063616c6c6572206973206e6f74206f6040820152701ddb995c881b9bdc88185c1c1c9bdd9959607a1b606082015260800190565b634e487b7160e01b600052603260045260246000fd5b634e487b7160e01b600052601160045260246000fd5b60006000198214156120ce576120ce6120a4565b5060010190565b634e487b7160e01b600052601260045260246000fd5b6000826120fa576120fa6120d5565b500690565b60008219821115612112576121126120a4565b500190565b60008351612129818460208801611c01565b83519083019061213d818360208801611c01565b01949350505050565b600082821015612158576121586120a4565b500390565b7f416363657373436f6e74726f6c3a206163636f756e7420000000000000000000815260008351612195816017850160208801611c01565b7001034b99036b4b9b9b4b733903937b6329607d1b60179184019182015283516121c6816028840160208801611c01565b01602801949350505050565b60208082526032908201527f4552433732313a207472616e7366657220746f206e6f6e20455243373231526560408201527131b2b4bb32b91034b6b83632b6b2b73a32b960711b606082015260800190565b600081600019048311821515161561223e5761223e6120a4565b500290565b600081612252576122526120a4565b506000190190565b6001600160a01b038581168252841660208201526040810183905260806060820181905260009061228d90830184611c2d565b9695505050505050565b6000602082840312156122a957600080fd5b815161172081611bcb565b6000826122c3576122c36120d5565b50049056fe9f2df0fed2c77648de5860a4cc508cd0818c85b8b8a1ab4ceeef8d981c8956a6a2646970667358221220af2e23cb943038917939323bc99d29a73c615af397bc0831973e9aa7c90391c564736f6c63430008090033",
  "linkReferences": {},
  "deployedLinkReferences": {}
}