{
  "_format": "hh-sol-artifact-1",
  "contractName": "Diamonds",
  "sourceName": "contracts/diamonds.sol",
  "abi": [
    {
      "inputs": [],
      "stateMutability": "nonpayable",
      "type": "constructor"
    },
    {
      "anonymous": false,
      "inputs": [
        {
          "indexed": true,
          "internalType": "address",
          "name": "owner",
          "type": "address"
        },
        {
          "indexed": true,
          "internalType": "address",
          "name": "spender",
          "type": "address"
        },
        {
          "indexed": false,
          "internalType": "uint256",
          "name": "value",
          "type": "uint256"
        }
      ],
      "name": "Approval",
      "type": "event"
    },
    {
      "anonymous": false,
      "inputs": [
        {
          "indexed": false,
          "internalType": "uint256",
          "name": "amount",
          "type": "uint256"
        }
      ],
      "name": "Bought",
      "type": "event"
    },
    {
      "anonymous": false,
      "inputs": [
        {
          "indexed": true,
          "internalType": "bytes32",
          "name": "role",
          "type": "bytes32"
        },
        {
          "indexed": true,
          "internalType": "bytes32",
          "name": "previousAdminRole",
          "type": "bytes32"
        },
        {
          "indexed": true,
          "internalType": "bytes32",
          "name": "newAdminRole",
          "type": "bytes32"
        }
      ],
      "name": "RoleAdminChanged",
      "type": "event"
    },
    {
      "anonymous": false,
      "inputs": [
        {
          "indexed": true,
          "internalType": "bytes32",
          "name": "role",
          "type": "bytes32"
        },
        {
          "indexed": true,
          "internalType": "address",
          "name": "account",
          "type": "address"
        },
        {
          "indexed": true,
          "internalType": "address",
          "name": "sender",
          "type": "address"
        }
      ],
      "name": "RoleGranted",
      "type": "event"
    },
    {
      "anonymous": false,
      "inputs": [
        {
          "indexed": true,
          "internalType": "bytes32",
          "name": "role",
          "type": "bytes32"
        },
        {
          "indexed": true,
          "internalType": "address",
          "name": "account",
          "type": "address"
        },
        {
          "indexed": true,
          "internalType": "address",
          "name": "sender",
          "type": "address"
        }
      ],
      "name": "RoleRevoked",
      "type": "event"
    },
    {
      "anonymous": false,
      "inputs": [
        {
          "indexed": false,
          "internalType": "uint256",
          "name": "amount",
          "type": "uint256"
        }
      ],
      "name": "Sold",
      "type": "event"
    },
    {
      "anonymous": false,
      "inputs": [
        {
          "indexed": true,
          "internalType": "address",
          "name": "from",
          "type": "address"
        },
        {
          "indexed": true,
          "internalType": "address",
          "name": "to",
          "type": "address"
        },
        {
          "indexed": false,
          "internalType": "uint256",
          "name": "value",
          "type": "uint256"
        }
      ],
      "name": "Transfer",
      "type": "event"
    },
    {
      "inputs": [],
      "name": "DEFAULT_ADMIN_ROLE",
      "outputs": [
        {
          "internalType": "bytes32",
          "name": "",
          "type": "bytes32"
        }
      ],
      "stateMutability": "view",
      "type": "function"
    },
    {
      "inputs": [],
      "name": "MINTER_ROLE",
      "outputs": [
        {
          "internalType": "bytes32",
          "name": "",
          "type": "bytes32"
        }
      ],
      "stateMutability": "view",
      "type": "function"
    },
    {
      "inputs": [
        {
          "internalType": "address",
          "name": "owner",
          "type": "address"
        },
        {
          "internalType": "address",
          "name": "spender",
          "type": "address"
        }
      ],
      "name": "allowance",
      "outputs": [
        {
          "internalType": "uint256",
          "name": "",
          "type": "uint256"
        }
      ],
      "stateMutability": "view",
      "type": "function"
    },
    {
      "inputs": [
        {
          "internalType": "address",
          "name": "spender",
          "type": "address"
        },
        {
          "internalType": "uint256",
          "name": "amount",
          "type": "uint256"
        }
      ],
      "name": "approve",
      "outputs": [
        {
          "internalType": "bool",
          "name": "",
          "type": "bool"
        }
      ],
      "stateMutability": "nonpayable",
      "type": "function"
    },
    {
      "inputs": [
        {
          "internalType": "address",
          "name": "account",
          "type": "address"
        }
      ],
      "name": "balanceOf",
      "outputs": [
        {
          "internalType": "uint256",
          "name": "",
          "type": "uint256"
        }
      ],
      "stateMutability": "view",
      "type": "function"
    },
    {
      "inputs": [
        {
          "internalType": "address",
          "name": "to",
          "type": "address"
        },
        {
          "internalType": "uint256",
          "name": "amount",
          "type": "uint256"
        }
      ],
      "name": "burn",
      "outputs": [],
      "stateMutability": "nonpayable",
      "type": "function"
    },
    {
      "inputs": [],
      "name": "charge",
      "outputs": [
        {
          "internalType": "uint256",
          "name": "",
          "type": "uint256"
        }
      ],
      "stateMutability": "view",
      "type": "function"
    },
    {
      "inputs": [],
      "name": "decimals",
      "outputs": [
        {
          "internalType": "uint8",
          "name": "",
          "type": "uint8"
        }
      ],
      "stateMutability": "view",
      "type": "function"
    },
    {
      "inputs": [
        {
          "internalType": "address",
          "name": "spender",
          "type": "address"
        },
        {
          "internalType": "uint256",
          "name": "subtractedValue",
          "type": "uint256"
        }
      ],
      "name": "decreaseAllowance",
      "outputs": [
        {
          "internalType": "bool",
          "name": "",
          "type": "bool"
        }
      ],
      "stateMutability": "nonpayable",
      "type": "function"
    },
    {
      "inputs": [],
      "name": "exchange",
      "outputs": [],
      "stateMutability": "payable",
      "type": "function"
    },
    {
      "inputs": [
        {
          "internalType": "bytes32",
          "name": "role",
          "type": "bytes32"
        }
      ],
      "name": "getRoleAdmin",
      "outputs": [
        {
          "internalType": "bytes32",
          "name": "",
          "type": "bytes32"
        }
      ],
      "stateMutability": "view",
      "type": "function"
    },
    {
      "inputs": [
        {
          "internalType": "bytes32",
          "name": "role",
          "type": "bytes32"
        },
        {
          "internalType": "address",
          "name": "account",
          "type": "address"
        }
      ],
      "name": "grantRole",
      "outputs": [],
      "stateMutability": "nonpayable",
      "type": "function"
    },
    {
      "inputs": [
        {
          "internalType": "bytes32",
          "name": "role",
          "type": "bytes32"
        },
        {
          "internalType": "address",
          "name": "account",
          "type": "address"
        }
      ],
      "name": "hasRole",
      "outputs": [
        {
          "internalType": "bool",
          "name": "",
          "type": "bool"
        }
      ],
      "stateMutability": "view",
      "type": "function"
    },
    {
      "inputs": [
        {
          "internalType": "address",
          "name": "spender",
          "type": "address"
        },
        {
          "internalType": "uint256",
          "name": "addedValue",
          "type": "uint256"
        }
      ],
      "name": "increaseAllowance",
      "outputs": [
        {
          "internalType": "bool",
          "name": "",
          "type": "bool"
        }
      ],
      "stateMutability": "nonpayable",
      "type": "function"
    },
    {
      "inputs": [
        {
          "internalType": "address",
          "name": "to",
          "type": "address"
        },
        {
          "internalType": "uint256",
          "name": "amount",
          "type": "uint256"
        }
      ],
      "name": "mint",
      "outputs": [],
      "stateMutability": "nonpayable",
      "type": "function"
    },
    {
      "inputs": [],
      "name": "name",
      "outputs": [
        {
          "internalType": "string",
          "name": "",
          "type": "string"
        }
      ],
      "stateMutability": "view",
      "type": "function"
    },
    {
      "inputs": [],
      "name": "rate",
      "outputs": [
        {
          "internalType": "uint256",
          "name": "",
          "type": "uint256"
        }
      ],
      "stateMutability": "view",
      "type": "function"
    },
    {
      "inputs": [
        {
          "internalType": "bytes32",
          "name": "role",
          "type": "bytes32"
        },
        {
          "internalType": "address",
          "name": "account",
          "type": "address"
        }
      ],
      "name": "renounceRole",
      "outputs": [],
      "stateMutability": "nonpayable",
      "type": "function"
    },
    {
      "inputs": [
        {
          "internalType": "bytes32",
          "name": "role",
          "type": "bytes32"
        },
        {
          "internalType": "address",
          "name": "account",
          "type": "address"
        }
      ],
      "name": "revokeRole",
      "outputs": [],
      "stateMutability": "nonpayable",
      "type": "function"
    },
    {
      "inputs": [
        {
          "internalType": "uint256",
          "name": "_charge",
          "type": "uint256"
        }
      ],
      "name": "setCharge",
      "outputs": [],
      "stateMutability": "nonpayable",
      "type": "function"
    },
    {
      "inputs": [
        {
          "internalType": "uint256",
          "name": "_rate",
          "type": "uint256"
        }
      ],
      "name": "setRate",
      "outputs": [],
      "stateMutability": "nonpayable",
      "type": "function"
    },
    {
      "inputs": [
        {
          "internalType": "address",
          "name": "addr",
          "type": "address"
        }
      ],
      "name": "setRole",
      "outputs": [],
      "stateMutability": "nonpayable",
      "type": "function"
    },
    {
      "inputs": [
        {
          "internalType": "bytes4",
          "name": "interfaceId",
          "type": "bytes4"
        }
      ],
      "name": "supportsInterface",
      "outputs": [
        {
          "internalType": "bool",
          "name": "",
          "type": "bool"
        }
      ],
      "stateMutability": "view",
      "type": "function"
    },
    {
      "inputs": [],
      "name": "symbol",
      "outputs": [
        {
          "internalType": "string",
          "name": "",
          "type": "string"
        }
      ],
      "stateMutability": "view",
      "type": "function"
    },
    {
      "inputs": [],
      "name": "totalSupply",
      "outputs": [
        {
          "internalType": "uint256",
          "name": "",
          "type": "uint256"
        }
      ],
      "stateMutability": "view",
      "type": "function"
    },
    {
      "inputs": [
        {
          "internalType": "address",
          "name": "to",
          "type": "address"
        },
        {
          "internalType": "uint256",
          "name": "amount",
          "type": "uint256"
        }
      ],
      "name": "transfer",
      "outputs": [
        {
          "internalType": "bool",
          "name": "",
          "type": "bool"
        }
      ],
      "stateMutability": "nonpayable",
      "type": "function"
    },
    {
      "inputs": [
        {
          "internalType": "address",
          "name": "from",
          "type": "address"
        },
        {
          "internalType": "address",
          "name": "to",
          "type": "address"
        },
        {
          "internalType": "uint256",
          "name": "amount",
          "type": "uint256"
        }
      ],
      "name": "transferFrom",
      "outputs": [
        {
          "internalType": "bool",
          "name": "",
          "type": "bool"
        }
      ],
      "stateMutability": "nonpayable",
      "type": "function"
    },
    {
      "inputs": [
        {
          "internalType": "address",
          "name": "receiver",
          "type": "address"
        },
        {
          "internalType": "uint256",
          "name": "amount",
          "type": "uint256"
        }
      ],
      "name": "transferOther",
      "outputs": [],
      "stateMutability": "nonpayable",
      "type": "function"
    },
    {
      "inputs": [
        {
          "internalType": "address",
          "name": "sender",
          "type": "address"
        },
        {
          "internalType": "address",
          "name": "receiver",
          "type": "address"
        },
        {
          "internalType": "uint256",
          "name": "amount",
          "type": "uint256"
        }
      ],
      "name": "transferRole",
      "outputs": [],
      "stateMutability": "nonpayable",
      "type": "function"
    },
    {
      "inputs": [
        {
          "internalType": "uint256",
          "name": "amount",
          "type": "uint256"
        }
      ],
      "name": "withdaw",
      "outputs": [],
      "stateMutability": "nonpayable",
      "type": "function"
    },
    {
      "inputs": [
        {
          "internalType": "uint256",
          "name": "amount",
          "type": "uint256"
        }
      ],
      "name": "withdawOwner",
      "outputs": [],
      "stateMutability": "nonpayable",
      "type": "function"
    }
  ],
  "bytecode": "0x608060405261271060065560006007553480156200001c57600080fd5b50604051806040016040528060088152602001674469616d6f6e647360c01b8152506040518060400160405280600381526020016244494160e81b81525081600390805190602001906200007292919062000294565b5080516200008890600490602084019062000294565b506200009a91506000905033620000f4565b620000c67f9f2df0fed2c77648de5860a4cc508cd0818c85b8b8a1ab4ceeef8d981c8956a633620000f4565b620000ee33620000d96012600a6200044d565b620000e890620f424062000465565b6200017f565b620004df565b62000100828262000267565b6200017b5760008281526005602090815260408083206001600160a01b03851684529091529020805460ff191660011790556200013a3390565b6001600160a01b0316816001600160a01b0316837f2f8788117e7eff1d82e926ec794901d17c78024a50270940304540a733656f0d60405160405180910390a45b5050565b6001600160a01b038216620001da5760405162461bcd60e51b815260206004820152601f60248201527f45524332303a206d696e7420746f20746865207a65726f206164647265737300604482015260640160405180910390fd5b8060026000828254620001ee919062000487565b90915550506001600160a01b038216600090815260208190526040812080548392906200021d90849062000487565b90915550506040518181526001600160a01b038316906000907fddf252ad1be2c89b69c2b068fc378daa952ba7f163c4a11628f55a4df523b3ef9060200160405180910390a35050565b60008281526005602090815260408083206001600160a01b038516845290915290205460ff165b92915050565b828054620002a290620004a2565b90600052602060002090601f016020900481019282620002c6576000855562000311565b82601f10620002e157805160ff191683800117855562000311565b8280016001018555821562000311579182015b8281111562000311578251825591602001919060010190620002f4565b506200031f92915062000323565b5090565b5b808211156200031f576000815560010162000324565b634e487b7160e01b600052601160045260246000fd5b600181815b80851115620003915781600019048211156200037557620003756200033a565b808516156200038357918102915b93841c939080029062000355565b509250929050565b600082620003aa575060016200028e565b81620003b9575060006200028e565b8160018114620003d25760028114620003dd57620003fd565b60019150506200028e565b60ff841115620003f157620003f16200033a565b50506001821b6200028e565b5060208310610133831016604e8410600b841016171562000422575081810a6200028e565b6200042e838362000350565b80600019048211156200044557620004456200033a565b029392505050565b60006200045e60ff84168362000399565b9392505050565b60008160001904831182151516156200048257620004826200033a565b500290565b600082198211156200049d576200049d6200033a565b500190565b600181811c90821680620004b757607f821691505b60208210811415620004d957634e487b7160e01b600052602260045260246000fd5b50919050565b61183d80620004ef6000396000f3fe6080604052600436106101d85760003560e01c80635516191311610102578063a457c2d711610095578063d547741f11610064578063d547741f14610537578063dd62ed3e14610557578063ea92dd1d1461059d578063fc55b138146105bd57600080fd5b8063a457c2d7146104cd578063a9059cbb146104ed578063d2f7265a1461050d578063d53913931461051557600080fd5b806395d89b41116100d157806395d89b41146104635780639dc29fac14610478578063a0362cdd14610498578063a217fddf146104b857600080fd5b806355161913146103d75780635d0efc4d146103ed57806370a082311461040d57806391d148541461044357600080fd5b8063248a9ca31161017a57806334fcf4371161014957806334fcf4371461035757806336568abe14610377578063395093511461039757806340c10f19146103b757600080fd5b8063248a9ca3146102d55780632c4e722e146103055780632f2ff15d1461031b578063313ce5671461033b57600080fd5b8063095ea7b3116101b6578063095ea7b31461025657806318160ddd146102765780631c6a0c4c1461029557806323b872dd146102b557600080fd5b806301ffc9a7146101dd57806306dad3fb1461021257806306fdde0314610234575b600080fd5b3480156101e957600080fd5b506101fd6101f83660046114ab565b6105dd565b60405190151581526020015b60405180910390f35b34801561021e57600080fd5b5061023261022d3660046114f1565b610614565b005b34801561024057600080fd5b5061024961063e565b6040516102099190611585565b34801561026257600080fd5b506101fd610271366004611598565b6106d0565b34801561028257600080fd5b506002545b604051908152602001610209565b3480156102a157600080fd5b506102326102b03660046115c2565b6106e8565b3480156102c157600080fd5b506101fd6102d03660046114f1565b610766565b3480156102e157600080fd5b506102876102f03660046115c2565b60009081526005602052604090206001015490565b34801561031157600080fd5b5061028760065481565b34801561032757600080fd5b506102326103363660046115db565b61078a565b34801561034757600080fd5b5060405160128152602001610209565b34801561036357600080fd5b506102326103723660046115c2565b6107b5565b34801561038357600080fd5b506102326103923660046115db565b6107d4565b3480156103a357600080fd5b506101fd6103b2366004611598565b610857565b3480156103c357600080fd5b506102326103d2366004611598565b610896565b3480156103e357600080fd5b5061028760075481565b3480156103f957600080fd5b50610232610408366004611607565b6108b9565b34801561041957600080fd5b50610287610428366004611607565b6001600160a01b031660009081526020819052604090205490565b34801561044f57600080fd5b506101fd61045e3660046115db565b6108dd565b34801561046f57600080fd5b50610249610908565b34801561048457600080fd5b50610232610493366004611598565b610917565b3480156104a457600080fd5b506102326104b3366004611598565b61093a565b3480156104c457600080fd5b50610287600081565b3480156104d957600080fd5b506101fd6104e8366004611598565b610945565b3480156104f957600080fd5b506101fd610508366004611598565b6109d7565b6102326109e5565b34801561052157600080fd5b506102876000805160206117e883398151915281565b34801561054357600080fd5b506102326105523660046115db565b610ab1565b34801561056357600080fd5b50610287610572366004611622565b6001600160a01b03918216600090815260016020908152604080832093909416825291909152205490565b3480156105a957600080fd5b506102326105b83660046115c2565b610ad7565b3480156105c957600080fd5b506102326105d83660046115c2565b610b87565b60006001600160e01b03198216637965db0b60e01b148061060e57506301ffc9a760e01b6001600160e01b03198316145b92915050565b6000805160206117e883398151915261062d8133610ba6565b610638848484610c0a565b50505050565b60606003805461064d9061164c565b80601f01602080910402602001604051908101604052809291908181526020018280546106799061164c565b80156106c65780601f1061069b576101008083540402835291602001916106c6565b820191906000526020600020905b8154815290600101906020018083116106a957829003601f168201915b5050505050905090565b6000336106de818585610dd8565b5060019392505050565b6000805160206117e88339815191526107018133610ba6565b604051339083156108fc029084906000818181858888f1935050505015801561072e573d6000803e3d6000fd5b506040518281527f92f64ca637d023f354075a4be751b169c1a8a9ccb6d33cdd0cb35205439957279060200160405180910390a15050565b600033610774858285610efc565b61077f858585610c0a565b506001949350505050565b6000828152600560205260409020600101546107a68133610ba6565b6107b08383610f88565b505050565b6000805160206117e88339815191526107ce8133610ba6565b50600655565b6001600160a01b03811633146108495760405162461bcd60e51b815260206004820152602f60248201527f416363657373436f6e74726f6c3a2063616e206f6e6c792072656e6f756e636560448201526e103937b632b9903337b91039b2b63360891b60648201526084015b60405180910390fd5b610853828261100e565b5050565b3360008181526001602090815260408083206001600160a01b03871684529091528120549091906106de908290869061089190879061169d565b610dd8565b6000805160206117e88339815191526108af8133610ba6565b6107b08383611075565b60006108c58133610ba6565b6108536000805160206117e883398151915283610f88565b60009182526005602090815260408084206001600160a01b0393909316845291905290205460ff1690565b60606004805461064d9061164c565b6000805160206117e88339815191526109308133610ba6565b6107b08383611154565b6107b0338383610766565b3360008181526001602090815260408083206001600160a01b0387168452909152812054909190838110156109ca5760405162461bcd60e51b815260206004820152602560248201527f45524332303a2064656372656173656420616c6c6f77616e63652062656c6f77604482015264207a65726f60d81b6064820152608401610840565b61077f8286868403610dd8565b6000336106de818585610c0a565b60408051808201909152600b81526a616d6f756e74546f62757960a81b60208201523490610a1390826112a2565b60008111610a635760405162461bcd60e51b815260206004820152601b60248201527f596f75206e65656420746f2073656e6420736f6d6520457468657200000000006044820152606401610840565b610a6e8160646116b5565b9050610a7a3382611075565b6040518181527f4e08ba899977cf7d4c2964bce71c6b9a7ef76ee5166a4c1249a1e08016e33ef1906020015b60405180910390a150565b600082815260056020526040902060010154610acd8133610ba6565b6107b0838361100e565b610ae13382611154565b336001600160a01b03166108fc606460075484610afe91906116b5565b610b0891906116d4565b620f424060065485610b1a91906116b5565b610b2491906116d4565b610b2e91906116f6565b6040518115909202916000818181858888f19350505050158015610b56573d6000803e3d6000fd5b506040518181527f92f64ca637d023f354075a4be751b169c1a8a9ccb6d33cdd0cb352054399572790602001610aa6565b6000805160206117e8833981519152610ba08133610ba6565b50600755565b610bb082826108dd565b61085357610bc8816001600160a01b031660146112e7565b610bd38360206112e7565b604051602001610be492919061170d565b60408051601f198184030181529082905262461bcd60e51b825261084091600401611585565b6001600160a01b038316610c6e5760405162461bcd60e51b815260206004820152602560248201527f45524332303a207472616e736665722066726f6d20746865207a65726f206164604482015264647265737360d81b6064820152608401610840565b6001600160a01b038216610cd05760405162461bcd60e51b815260206004820152602360248201527f45524332303a207472616e7366657220746f20746865207a65726f206164647260448201526265737360e81b6064820152608401610840565b6001600160a01b03831660009081526020819052604090205481811015610d485760405162461bcd60e51b815260206004820152602660248201527f45524332303a207472616e7366657220616d6f756e7420657863656564732062604482015265616c616e636560d01b6064820152608401610840565b6001600160a01b03808516600090815260208190526040808220858503905591851681529081208054849290610d7f90849061169d565b92505081905550826001600160a01b0316846001600160a01b03167fddf252ad1be2c89b69c2b068fc378daa952ba7f163c4a11628f55a4df523b3ef84604051610dcb91815260200190565b60405180910390a3610638565b6001600160a01b038316610e3a5760405162461bcd60e51b8152602060048201526024808201527f45524332303a20617070726f76652066726f6d20746865207a65726f206164646044820152637265737360e01b6064820152608401610840565b6001600160a01b038216610e9b5760405162461bcd60e51b815260206004820152602260248201527f45524332303a20617070726f766520746f20746865207a65726f206164647265604482015261737360f01b6064820152608401610840565b6001600160a01b0383811660008181526001602090815260408083209487168084529482529182902085905590518481527f8c5be1e5ebec7d5bd14f71427d1e84f3dd0314c0f7b2291e5b200ac8c7c3b925910160405180910390a3505050565b6001600160a01b0383811660009081526001602090815260408083209386168352929052205460001981146106385781811015610f7b5760405162461bcd60e51b815260206004820152601d60248201527f45524332303a20696e73756666696369656e7420616c6c6f77616e63650000006044820152606401610840565b6106388484848403610dd8565b610f9282826108dd565b6108535760008281526005602090815260408083206001600160a01b03851684529091529020805460ff19166001179055610fca3390565b6001600160a01b0316816001600160a01b0316837f2f8788117e7eff1d82e926ec794901d17c78024a50270940304540a733656f0d60405160405180910390a45050565b61101882826108dd565b156108535760008281526005602090815260408083206001600160a01b0385168085529252808320805460ff1916905551339285917ff6391f5c32d9c69d2a47ea670b442974b53935d1edc7fd64eb21e047a839171b9190a45050565b6001600160a01b0382166110cb5760405162461bcd60e51b815260206004820152601f60248201527f45524332303a206d696e7420746f20746865207a65726f2061646472657373006044820152606401610840565b80600260008282546110dd919061169d565b90915550506001600160a01b0382166000908152602081905260408120805483929061110a90849061169d565b90915550506040518181526001600160a01b038316906000907fddf252ad1be2c89b69c2b068fc378daa952ba7f163c4a11628f55a4df523b3ef9060200160405180910390a35050565b6001600160a01b0382166111b45760405162461bcd60e51b815260206004820152602160248201527f45524332303a206275726e2066726f6d20746865207a65726f206164647265736044820152607360f81b6064820152608401610840565b6001600160a01b038216600090815260208190526040902054818110156112285760405162461bcd60e51b815260206004820152602260248201527f45524332303a206275726e20616d6f756e7420657863656564732062616c616e604482015261636560f01b6064820152608401610840565b6001600160a01b03831660009081526020819052604081208383039055600280548492906112579084906116f6565b90915550506040518281526000906001600160a01b038516907fddf252ad1be2c89b69c2b068fc378daa952ba7f163c4a11628f55a4df523b3ef9060200160405180910390a3505050565b61085382826040516024016112b8929190611782565b60408051601f198184030181529190526020810180516001600160e01b03166309710a9d60e41b17905261148a565b606060006112f68360026116b5565b61130190600261169d565b67ffffffffffffffff811115611319576113196117a4565b6040519080825280601f01601f191660200182016040528015611343576020820181803683370190505b509050600360fc1b8160008151811061135e5761135e6117ba565b60200101906001600160f81b031916908160001a905350600f60fb1b8160018151811061138d5761138d6117ba565b60200101906001600160f81b031916908160001a90535060006113b18460026116b5565b6113bc90600161169d565b90505b6001811115611434576f181899199a1a9b1b9c1cb0b131b232b360811b85600f16601081106113f0576113f06117ba565b1a60f81b828281518110611406576114066117ba565b60200101906001600160f81b031916908160001a90535060049490941c9361142d816117d0565b90506113bf565b5083156114835760405162461bcd60e51b815260206004820181905260248201527f537472696e67733a20686578206c656e67746820696e73756666696369656e746044820152606401610840565b9392505050565b80516a636f6e736f6c652e6c6f67602083016000808483855afa5050505050565b6000602082840312156114bd57600080fd5b81356001600160e01b03198116811461148357600080fd5b80356001600160a01b03811681146114ec57600080fd5b919050565b60008060006060848603121561150657600080fd5b61150f846114d5565b925061151d602085016114d5565b9150604084013590509250925092565b60005b83811015611548578181015183820152602001611530565b838111156106385750506000910152565b6000815180845261157181602086016020860161152d565b601f01601f19169290920160200192915050565b6020815260006114836020830184611559565b600080604083850312156115ab57600080fd5b6115b4836114d5565b946020939093013593505050565b6000602082840312156115d457600080fd5b5035919050565b600080604083850312156115ee57600080fd5b823591506115fe602084016114d5565b90509250929050565b60006020828403121561161957600080fd5b611483826114d5565b6000806040838503121561163557600080fd5b61163e836114d5565b91506115fe602084016114d5565b600181811c9082168061166057607f821691505b6020821081141561168157634e487b7160e01b600052602260045260246000fd5b50919050565b634e487b7160e01b600052601160045260246000fd5b600082198211156116b0576116b0611687565b500190565b60008160001904831182151516156116cf576116cf611687565b500290565b6000826116f157634e487b7160e01b600052601260045260246000fd5b500490565b60008282101561170857611708611687565b500390565b7f416363657373436f6e74726f6c3a206163636f756e742000000000000000000081526000835161174581601785016020880161152d565b7001034b99036b4b9b9b4b733903937b6329607d1b601791840191820152835161177681602884016020880161152d565b01602801949350505050565b6040815260006117956040830185611559565b90508260208301529392505050565b634e487b7160e01b600052604160045260246000fd5b634e487b7160e01b600052603260045260246000fd5b6000816117df576117df611687565b50600019019056fe9f2df0fed2c77648de5860a4cc508cd0818c85b8b8a1ab4ceeef8d981c8956a6a2646970667358221220dcec1525b0234469119994013d75b180613c66de81208fa600a3409ae954367b64736f6c63430008090033",
  "linkReferences": {},
  "deployedLinkReferences": {}
}