{
  "_format": "hh-sol-artifact-1",
  "contractName": "MarketHoe",
  "sourceName": "contracts/market_hoe.sol",
  "abi": [
    {
      "inputs": [
        {
          "internalType": "address",
          "name": "diamondsAddr",
          "type": "address"
        },
        {
          "internalType": "address",
          "name": "hoeAddr",
          "type": "address"
        }
      ],
      "stateMutability": "nonpayable",
      "type": "constructor"
    },
    {
      "anonymous": false,
      "inputs": [
        {
          "indexed": true,
          "internalType": "uint256",
          "name": "tokenId",
          "type": "uint256"
        },
        {
          "indexed": true,
          "internalType": "address",
          "name": "buyer",
          "type": "address"
        },
        {
          "indexed": true,
          "internalType": "address",
          "name": "seller",
          "type": "address"
        }
      ],
      "name": "Buy",
      "type": "event"
    },
    {
      "anonymous": false,
      "inputs": [
        {
          "indexed": true,
          "internalType": "uint256",
          "name": "tokenId",
          "type": "uint256"
        },
        {
          "indexed": true,
          "internalType": "address",
          "name": "seller",
          "type": "address"
        }
      ],
      "name": "Cancel",
      "type": "event"
    },
    {
      "anonymous": false,
      "inputs": [
        {
          "indexed": true,
          "internalType": "address",
          "name": "previousOwner",
          "type": "address"
        },
        {
          "indexed": true,
          "internalType": "address",
          "name": "newOwner",
          "type": "address"
        }
      ],
      "name": "OwnershipTransferred",
      "type": "event"
    },
    {
      "anonymous": false,
      "inputs": [
        {
          "indexed": true,
          "internalType": "uint256",
          "name": "tokenId",
          "type": "uint256"
        },
        {
          "indexed": true,
          "internalType": "address",
          "name": "seller",
          "type": "address"
        }
      ],
      "name": "Sale",
      "type": "event"
    },
    {
      "inputs": [
        {
          "internalType": "uint256",
          "name": "_tokenId",
          "type": "uint256"
        }
      ],
      "name": "buy",
      "outputs": [],
      "stateMutability": "nonpayable",
      "type": "function"
    },
    {
      "inputs": [
        {
          "internalType": "uint256",
          "name": "_tokenId",
          "type": "uint256"
        }
      ],
      "name": "cancel",
      "outputs": [],
      "stateMutability": "nonpayable",
      "type": "function"
    },
    {
      "inputs": [],
      "name": "getShop",
      "outputs": [
        {
          "internalType": "uint256[]",
          "name": "",
          "type": "uint256[]"
        }
      ],
      "stateMutability": "view",
      "type": "function"
    },
    {
      "inputs": [],
      "name": "minPrice",
      "outputs": [
        {
          "internalType": "uint256",
          "name": "",
          "type": "uint256"
        }
      ],
      "stateMutability": "view",
      "type": "function"
    },
    {
      "inputs": [],
      "name": "owner",
      "outputs": [
        {
          "internalType": "address",
          "name": "",
          "type": "address"
        }
      ],
      "stateMutability": "view",
      "type": "function"
    },
    {
      "inputs": [],
      "name": "renounceOwnership",
      "outputs": [],
      "stateMutability": "nonpayable",
      "type": "function"
    },
    {
      "inputs": [
        {
          "internalType": "uint256",
          "name": "_tokenId",
          "type": "uint256"
        },
        {
          "internalType": "uint256",
          "name": "_price",
          "type": "uint256"
        }
      ],
      "name": "sale",
      "outputs": [],
      "stateMutability": "nonpayable",
      "type": "function"
    },
    {
      "inputs": [
        {
          "internalType": "uint256",
          "name": "_value",
          "type": "uint256"
        }
      ],
      "name": "setMinPrice",
      "outputs": [],
      "stateMutability": "nonpayable",
      "type": "function"
    },
    {
      "inputs": [
        {
          "internalType": "uint256",
          "name": "",
          "type": "uint256"
        }
      ],
      "name": "shop",
      "outputs": [
        {
          "internalType": "address",
          "name": "seller",
          "type": "address"
        },
        {
          "internalType": "uint256",
          "name": "price",
          "type": "uint256"
        }
      ],
      "stateMutability": "view",
      "type": "function"
    },
    {
      "inputs": [
        {
          "internalType": "address",
          "name": "newOwner",
          "type": "address"
        }
      ],
      "name": "transferOwnership",
      "outputs": [],
      "stateMutability": "nonpayable",
      "type": "function"
    }
  ],
  "bytecode": "0x6080604052670de0b6b3a764000060055534801561001c57600080fd5b50604051610d30380380610d3083398101604081905261003b916100e1565b61004433610075565b600180546001600160a01b039384166001600160a01b03199182161790915560028054929093169116179055610114565b600080546001600160a01b038381166001600160a01b0319831681178455604051919092169283917f8be0079c531659141344cd1fd0a4f28419497f9722a3daafe3b4186f6b6457e09190a35050565b80516001600160a01b03811681146100dc57600080fd5b919050565b600080604083850312156100f457600080fd5b6100fd836100c5565b915061010b602084016100c5565b90509250929050565b610c0d806101236000396000f3fe608060405234801561001057600080fd5b506004361061009e5760003560e01c80638da5cb5b116100665780638da5cb5b14610104578063d96a094a1461011f578063da69c08314610132578063e45be8eb14610184578063f2fde38b1461019b57600080fd5b80631afb2740146100a35780631c35f962146100c157806340e58ee5146100d65780635ea8cd12146100e9578063715018a6146100fc575b600080fd5b6100ab6101ae565b6040516100b89190610a2f565b60405180910390f35b6100d46100cf366004610a73565b6102e7565b005b6100d46100e4366004610a95565b6104e8565b6100d46100f7366004610a95565b610678565b6100d46106a7565b6000546040516001600160a01b0390911681526020016100b8565b6100d461012d366004610a95565b6106dd565b610165610140366004610a95565b600360205260009081526040902080546001909101546001600160a01b039091169082565b604080516001600160a01b0390931683526020830191909152016100b8565b61018d60055481565b6040519081526020016100b8565b6100d46101a9366004610ac3565b610925565b6060600060045467ffffffffffffffff8111156101cd576101cd610ae0565b6040519080825280602002602001820160405280156101f6578160200160208202803683370190505b509050600060015b600260009054906101000a90046001600160a01b03166001600160a01b031663714cff566040518163ffffffff1660e01b815260040160206040518083038186803b15801561024c57600080fd5b505afa158015610260573d6000803e3d6000fd5b505050506040513d601f19601f820116820180604052508101906102849190610af6565b81116102df57600081815260036020526040902060010154156102cd57808383815181106102b4576102b4610b0f565b6020908102919091010152816102c981610b3b565b9250505b806102d781610b3b565b9150506101fe565b509092915050565b6005548110156103345760405162461bcd60e51b8152602060048201526013602482015272596f7572207072696365206e6f7420616c6f7760681b60448201526064015b60405180910390fd5b6002546040516331a9108f60e11b81526004810184905233916001600160a01b031690636352211e9060240160206040518083038186803b15801561037857600080fd5b505afa15801561038c573d6000803e3d6000fd5b505050506040513d601f19601f820116820180604052508101906103b09190610b56565b6001600160a01b0316146103f75760405162461bcd60e51b815260206004820152600e60248201526d746f6b656e206e6f7420616c6f7760901b604482015260640161032b565b604080518082018252338152602080820184815260008681526003909252929020905181546001600160a01b0319166001600160a01b039091161781559051600191820155600454610448916109c0565b6004908155600254604051633ee1763760e21b81523392810192909252306024830152600160448301526001600160a01b03169063fb85d8dc90606401600060405180830381600087803b15801561049f57600080fd5b505af11580156104b3573d6000803e3d6000fd5b50506040513392508491507f938e870e870a8d47d06b8bbd499d54ea37fb4f7777de1ff086d6d71e1fa1599690600090a35050565b6002546040516331a9108f60e11b81526004810183905233916001600160a01b031690636352211e9060240160206040518083038186803b15801561052c57600080fd5b505afa158015610540573d6000803e3d6000fd5b505050506040513d601f19601f820116820180604052508101906105649190610b56565b6001600160a01b0316146105ab5760405162461bcd60e51b815260206004820152600e60248201526d746f6b656e206e6f7420616c6f7760901b604482015260640161032b565b60008181526003602052604080822080546001600160a01b03191681556001018290556002549051633ee1763760e21b815233600482015230602482015260448101929092526001600160a01b03169063fb85d8dc90606401600060405180830381600087803b15801561061e57600080fd5b505af1158015610632573d6000803e3d6000fd5b50506004546106459250905060016109d3565b600455604051339082907f8dd3c361eb2366ff27c2db0eb07b9261f1d052570742ab8c9a0c326f37aa576d90600090a350565b6000546001600160a01b031633146106a25760405162461bcd60e51b815260040161032b90610b73565b600555565b6000546001600160a01b031633146106d15760405162461bcd60e51b815260040161032b90610b73565b6106db60006109df565b565b60008181526003602052604090819020600190810154905491516370a0823160e01b815233600482015290916001600160a01b0316906370a082319060240160206040518083038186803b15801561073457600080fd5b505afa158015610748573d6000803e3d6000fd5b505050506040513d601f19601f8201168201806040525081019061076c9190610af6565b10156107ac5760405162461bcd60e51b815260206004820152600f60248201526e4e6f20656e6f756768206d6f6e657960881b604482015260640161032b565b6001805460008381526003602052604090819020805493015490516306dad3fb60e01b81523360048201526001600160a01b03938416602482015260448101919091529116906306dad3fb90606401600060405180830381600087803b15801561081557600080fd5b505af1158015610829573d6000803e3d6000fd5b505060025460008481526003602052604090819020549051632142170760e11b81526001600160a01b03918216600482015233602482015260448101869052911692506342842e0e9150606401600060405180830381600087803b15801561089057600080fd5b505af11580156108a4573d6000803e3d6000fd5b505050600082815260036020526040812080546001600160a01b03191681556001908101919091556004546108da9250906109d3565b6004556000818152600360205260408082205490516001600160a01b0390911691339184917f39305df1e01a8efc02b583f32f465b5de19be261bbc83b3d8c37f3686c8af6be91a450565b6000546001600160a01b0316331461094f5760405162461bcd60e51b815260040161032b90610b73565b6001600160a01b0381166109b45760405162461bcd60e51b815260206004820152602660248201527f4f776e61626c653a206e6577206f776e657220697320746865207a65726f206160448201526564647265737360d01b606482015260840161032b565b6109bd816109df565b50565b60006109cc8284610ba8565b9392505050565b60006109cc8284610bc0565b600080546001600160a01b038381166001600160a01b0319831681178455604051919092169283917f8be0079c531659141344cd1fd0a4f28419497f9722a3daafe3b4186f6b6457e09190a35050565b6020808252825182820181905260009190848201906040850190845b81811015610a6757835183529284019291840191600101610a4b565b50909695505050505050565b60008060408385031215610a8657600080fd5b50508035926020909101359150565b600060208284031215610aa757600080fd5b5035919050565b6001600160a01b03811681146109bd57600080fd5b600060208284031215610ad557600080fd5b81356109cc81610aae565b634e487b7160e01b600052604160045260246000fd5b600060208284031215610b0857600080fd5b5051919050565b634e487b7160e01b600052603260045260246000fd5b634e487b7160e01b600052601160045260246000fd5b6000600019821415610b4f57610b4f610b25565b5060010190565b600060208284031215610b6857600080fd5b81516109cc81610aae565b6020808252818101527f4f776e61626c653a2063616c6c6572206973206e6f7420746865206f776e6572604082015260600190565b60008219821115610bbb57610bbb610b25565b500190565b600082821015610bd257610bd2610b25565b50039056fea264697066735822122091b21c5063f38d07803c3e172b97b7b69d56b378245bf2c7ce9a480076d8ca2364736f6c63430008090033",
  "linkReferences": {},
  "deployedLinkReferences": {}
}