{
  "_format": "hh-sol-artifact-1",
  "contractName": "Game",
  "sourceName": "contracts/game.sol",
  "abi": [
    {
      "inputs": [
        {
          "internalType": "address",
          "name": "diamondsAddr",
          "type": "address"
        },
        {
          "internalType": "address",
          "name": "workerAddr",
          "type": "address"
        },
        {
          "internalType": "address",
          "name": "hoeAddr",
          "type": "address"
        }
      ],
      "stateMutability": "nonpayable",
      "type": "constructor"
    },
    {
      "anonymous": false,
      "inputs": [
        {
          "indexed": false,
          "internalType": "bool",
          "name": "successed",
          "type": "bool"
        }
      ],
      "name": "Dig",
      "type": "event"
    },
    {
      "inputs": [
        {
          "internalType": "uint256",
          "name": "workerId",
          "type": "uint256"
        },
        {
          "internalType": "uint256",
          "name": "hoeId",
          "type": "uint256"
        }
      ],
      "name": "copperRate",
      "outputs": [
        {
          "internalType": "uint256",
          "name": "",
          "type": "uint256"
        }
      ],
      "stateMutability": "view",
      "type": "function"
    },
    {
      "inputs": [
        {
          "internalType": "uint256",
          "name": "workerId",
          "type": "uint256"
        },
        {
          "internalType": "uint256",
          "name": "hoeId",
          "type": "uint256"
        },
        {
          "internalType": "uint8",
          "name": "_type",
          "type": "uint8"
        }
      ],
      "name": "dig",
      "outputs": [],
      "stateMutability": "nonpayable",
      "type": "function"
    },
    {
      "inputs": [
        {
          "internalType": "uint256",
          "name": "workerId",
          "type": "uint256"
        },
        {
          "internalType": "uint256",
          "name": "hoeId",
          "type": "uint256"
        }
      ],
      "name": "digAlow",
      "outputs": [
        {
          "internalType": "bool",
          "name": "",
          "type": "bool"
        }
      ],
      "stateMutability": "view",
      "type": "function"
    },
    {
      "inputs": [
        {
          "internalType": "uint256",
          "name": "workerId",
          "type": "uint256"
        },
        {
          "internalType": "uint256",
          "name": "hoeId",
          "type": "uint256"
        }
      ],
      "name": "goldRate",
      "outputs": [
        {
          "internalType": "uint256",
          "name": "",
          "type": "uint256"
        }
      ],
      "stateMutability": "view",
      "type": "function"
    },
    {
      "inputs": [
        {
          "internalType": "uint256",
          "name": "_length",
          "type": "uint256"
        },
        {
          "internalType": "uint256",
          "name": "_nonce",
          "type": "uint256"
        }
      ],
      "name": "rand",
      "outputs": [
        {
          "internalType": "uint256",
          "name": "",
          "type": "uint256"
        }
      ],
      "stateMutability": "view",
      "type": "function"
    },
    {
      "inputs": [
        {
          "internalType": "uint256",
          "name": "workerId",
          "type": "uint256"
        },
        {
          "internalType": "uint256",
          "name": "hoeId",
          "type": "uint256"
        }
      ],
      "name": "silverRate",
      "outputs": [
        {
          "internalType": "uint256",
          "name": "",
          "type": "uint256"
        }
      ],
      "stateMutability": "view",
      "type": "function"
    }
  ],
  "bytecode": "0x608060405234801561001057600080fd5b50604051610cb4380380610cb483398101604081905261002f9161008d565b600080546001600160a01b039485166001600160a01b0319918216179091556001805493851693821693909317909255600280549190931691161790556100d0565b80516001600160a01b038116811461008857600080fd5b919050565b6000806000606084860312156100a257600080fd5b6100ab84610071565b92506100b960208501610071565b91506100c760408501610071565b90509250925092565b610bd5806100df6000396000f3fe608060405234801561001057600080fd5b50600436106100625760003560e01c80633d397780146100675780637085cbe01461008d57806379460737146100a257806395032b62146100b5578063a05ac261146100c8578063a4d52f9e146100eb575b600080fd5b61007a610075366004610a09565b6100fe565b6040519081526020015b60405180910390f35b6100a061009b366004610a2b565b61022f565b005b61007a6100b0366004610a09565b610659565b61007a6100c3366004610a09565b61077d565b6100db6100d6366004610a09565b6107cf565b6040519015158152602001610084565b61007a6100f9366004610a09565b6108e5565b600254604051637ed2a60b60e11b8152600481018390526000916001600160a01b03169063fda54c169060240160206040518083038186803b15801561014357600080fd5b505afa158015610157573d6000803e3d6000fd5b505050506040513d601f19601f8201168201806040525081019061017b9190610a6a565b610186906002610aab565b600154604051637ed2a60b60e11b8152600481018690526001600160a01b039091169063fda54c169060240160206040518083038186803b1580156101ca57600080fd5b505afa1580156101de573d6000803e3d6000fd5b505050506040513d601f19601f820116820180604052508101906102029190610a6a565b61020d90600a610aab565b6102179190610ad5565b610222906005610aab565b61ffff1690505b92915050565b6001546040516331a9108f60e11b81526004810185905233916001600160a01b031690636352211e9060240160206040518083038186803b15801561027357600080fd5b505afa158015610287573d6000803e3d6000fd5b505050506040513d601f19601f820116820180604052508101906102ab9190610afb565b6001600160a01b0316146103065760405162461bcd60e51b815260206004820152601d60248201527f706c6179657220616e6420776f726b6572206e6f74206d61746368656400000060448201526064015b60405180910390fd5b6002546040516331a9108f60e11b81526004810184905233916001600160a01b031690636352211e9060240160206040518083038186803b15801561034a57600080fd5b505afa15801561035e573d6000803e3d6000fd5b505050506040513d601f19601f820116820180604052508101906103829190610afb565b6001600160a01b0316146103d85760405162461bcd60e51b815260206004820152601a60248201527f706c6179657220616e6420686f65206e6f74206d61746368656400000000000060448201526064016102fd565b6103e283836107cf565b61041e5760405162461bcd60e51b815260206004820152600d60248201526c646967206e6f7420616c6c6f7760981b60448201526064016102fd565b600154604051632097e3a360e11b8152336004820152602481018590526001600160a01b039091169063412fc74690604401600060405180830381600087803b15801561046a57600080fd5b505af115801561047e573d6000803e3d6000fd5b5050600254604051632097e3a360e11b8152336004820152602481018690526001600160a01b03909116925063412fc7469150604401600060405180830381600087803b1580156104ce57600080fd5b505af11580156104e2573d6000803e3d6000fd5b505050506000808260ff166001141561050a576104ff85856108e5565b915060089050610548565b8260ff166002141561052b5761052085856100fe565b915060039050610548565b8260ff1660031415610548576105418585610659565b9150600190505b6000610557612710600061077d565b905080831061061c576000546001600160a01b03166340c10f193361058485670de0b6b3a7640000610b24565b6040516001600160e01b031960e085901b1681526001600160a01b0390921660048301526024820152604401600060405180830381600087803b1580156105ca57600080fd5b505af11580156105de573d6000803e3d6000fd5b5050604051600181527f4a2cc74687aedf9af41a1249f832f3313b8b2edeaee06d7f5f7f6f4acb259cce9250602001905060405180910390a1610651565b604051600081527f4a2cc74687aedf9af41a1249f832f3313b8b2edeaee06d7f5f7f6f4acb259cce9060200160405180910390a15b505050505050565b600254604051637ed2a60b60e11b8152600481018390526000916001600160a01b03169063fda54c169060240160206040518083038186803b15801561069e57600080fd5b505afa1580156106b2573d6000803e3d6000fd5b505050506040513d601f19601f820116820180604052508101906106d69190610a6a565b6106e1906002610aab565b600154604051637ed2a60b60e11b8152600481018690526001600160a01b039091169063fda54c169060240160206040518083038186803b15801561072557600080fd5b505afa158015610739573d6000803e3d6000fd5b505050506040513d601f19601f8201168201806040525081019061075d9190610a6a565b61076890600a610aab565b6107729190610ad5565b610222906008610aab565b60408051446020808301919091524282840152606080830185905283518084039091018152608090920190925280519101206000906107bc8482610b43565b6107c7906001610b65565b949350505050565b60015460405163cbcbf10d60e01b8152600481018490526000916001600160a01b03169063cbcbf10d9060240160206040518083038186803b15801561081457600080fd5b505afa158015610828573d6000803e3d6000fd5b505050506040513d601f19601f8201168201806040525081019061084c9190610b7d565b80156108cf575060025460405163cbcbf10d60e01b8152600481018490526001600160a01b039091169063cbcbf10d9060240160206040518083038186803b15801561089757600080fd5b505afa1580156108ab573d6000803e3d6000fd5b505050506040513d601f19601f820116820180604052508101906108cf9190610b7d565b156108dc57506001610229565b50600092915050565b600254604051637ed2a60b60e11b8152600481018390526000916001600160a01b03169063fda54c169060240160206040518083038186803b15801561092a57600080fd5b505afa15801561093e573d6000803e3d6000fd5b505050506040513d601f19601f820116820180604052508101906109629190610a6a565b61096d906002610aab565b600154604051637ed2a60b60e11b8152600481018690526001600160a01b039091169063fda54c169060240160206040518083038186803b1580156109b157600080fd5b505afa1580156109c5573d6000803e3d6000fd5b505050506040513d601f19601f820116820180604052508101906109e99190610a6a565b6109f490600a610aab565b6109fe9190610ad5565b610222906002610aab565b60008060408385031215610a1c57600080fd5b50508035926020909101359150565b600080600060608486031215610a4057600080fd5b8335925060208401359150604084013560ff81168114610a5f57600080fd5b809150509250925092565b600060208284031215610a7c57600080fd5b815161ffff81168114610a8e57600080fd5b9392505050565b634e487b7160e01b600052601160045260246000fd5b600061ffff80831681851681830481118215151615610acc57610acc610a95565b02949350505050565b600061ffff808316818516808303821115610af257610af2610a95565b01949350505050565b600060208284031215610b0d57600080fd5b81516001600160a01b0381168114610a8e57600080fd5b6000816000190483118215151615610b3e57610b3e610a95565b500290565b600082610b6057634e487b7160e01b600052601260045260246000fd5b500690565b60008219821115610b7857610b78610a95565b500190565b600060208284031215610b8f57600080fd5b81518015158114610a8e57600080fdfea26469706673582212207183353a9926e6a914cc78238e320f40dab37a7cf2eb915c06192cf50993889d64736f6c63430008090033",
  "linkReferences": {},
  "deployedLinkReferences": {}
}