{
  "_format": "hh-sol-artifact-1",
  "contractName": "Hello",
  "sourceName": "contracts/hello.sol",
  "abi": [
    {
      "anonymous": false,
      "inputs": [
        {
          "indexed": false,
          "internalType": "string",
          "name": "content",
          "type": "string"
        }
      ],
      "name": "Over",
      "type": "event"
    },
    {
      "inputs": [],
      "name": "getContent",
      "outputs": [
        {
          "internalType": "string",
          "name": "",
          "type": "string"
        }
      ],
      "stateMutability": "view",
      "type": "function"
    },
    {
      "inputs": [
        {
          "internalType": "string",
          "name": "text",
          "type": "string"
        }
      ],
      "name": "setContent",
      "outputs": [],
      "stateMutability": "nonpayable",
      "type": "function"
    }
  ],
  "bytecode": "0x608060405234801561001057600080fd5b5061041d806100206000396000f3fe608060405234801561001057600080fd5b50600436106100365760003560e01c80633be8fd6a1461003b57806359016c7914610050575b600080fd5b61004e6100493660046101fe565b61006e565b005b6100586100bd565b60405161006591906102af565b60405180910390f35b805161008190600090602084019061014f565b507fa09b917245940a9f9b200db871868d36c05e98fee276425da4515e7eec87ae9a60006040516100b2919061033f565b60405180910390a150565b6060600080546100cc90610304565b80601f01602080910402602001604051908101604052809291908181526020018280546100f890610304565b80156101455780601f1061011a57610100808354040283529160200191610145565b820191906000526020600020905b81548152906001019060200180831161012857829003601f168201915b5050505050905090565b82805461015b90610304565b90600052602060002090601f01602090048101928261017d57600085556101c3565b82601f1061019657805160ff19168380011785556101c3565b828001600101855582156101c3579182015b828111156101c35782518255916020019190600101906101a8565b506101cf9291506101d3565b5090565b5b808211156101cf57600081556001016101d4565b634e487b7160e01b600052604160045260246000fd5b60006020828403121561021057600080fd5b813567ffffffffffffffff8082111561022857600080fd5b818401915084601f83011261023c57600080fd5b81358181111561024e5761024e6101e8565b604051601f8201601f19908116603f01168101908382118183101715610276576102766101e8565b8160405282815287602084870101111561028f57600080fd5b826020860160208301376000928101602001929092525095945050505050565b600060208083528351808285015260005b818110156102dc578581018301518582016040015282016102c0565b818111156102ee576000604083870101525b50601f01601f1916929092016040019392505050565b600181811c9082168061031857607f821691505b6020821081141561033957634e487b7160e01b600052602260045260246000fd5b50919050565b600060208083526000845481600182811c91508083168061036157607f831692505b85831081141561037f57634e487b7160e01b85526022600452602485fd5b87860183815260200181801561039c57600181146103ad576103d8565b60ff198616825287820196506103d8565b60008b81526020902060005b868110156103d2578154848201529085019089016103b9565b83019750505b5094999850505050505050505056fea2646970667358221220a76960d142363d264adddbc04c550fea5a3523c8fe6fb11946c196030b7042f464736f6c63430008090033",
  "linkReferences": {},
  "deployedLinkReferences": {}
}